{
  "_format": "hh-sol-artifact-1",
  "contractName": "CryptoRetirementPlan",
  "sourceName": "src/solidity/contracts/CryptoRetirementPlan.sol",
  "abi": [
    {
      "inputs": [
        {
          "internalType": "uint256",
          "name": "_commissionBasicPlan",
          "type": "uint256"
        },
        {
          "internalType": "uint256",
          "name": "_commissionInheritancePlan",
          "type": "uint256"
        },
        {
          "internalType": "uint256",
          "name": "_commissionFlexiblePlan",
          "type": "uint256"
        },
        {
          "internalType": "uint256",
          "name": "_minimumDaysDurationOfPlan",
          "type": "uint256"
        },
        {
          "internalType": "uint256",
          "name": "_gracePeriodInDays",
          "type": "uint256"
        }
      ],
      "stateMutability": "nonpayable",
      "type": "constructor"
    },
    {
      "inputs": [],
      "name": "addDeposit",
      "outputs": [],
      "stateMutability": "payable",
      "type": "function"
    },
    {
      "inputs": [
        {
          "components": [
            {
              "internalType": "address",
              "name": "heirAddress",
              "type": "address"
            },
            {
              "internalType": "string",
              "name": "name",
              "type": "string"
            }
          ],
          "internalType": "struct CryptoRetirementPlan.HeirParameter[]",
          "name": "heir",
          "type": "tuple[]"
        }
      ],
      "name": "addHeirs",
      "outputs": [],
      "stateMutability": "nonpayable",
      "type": "function"
    },
    {
      "inputs": [],
      "name": "commissionBasicPlan",
      "outputs": [
        {
          "internalType": "uint256",
          "name": "",
          "type": "uint256"
        }
      ],
      "stateMutability": "view",
      "type": "function"
    },
    {
      "inputs": [],
      "name": "commissionFlexiblePlan",
      "outputs": [
        {
          "internalType": "uint256",
          "name": "",
          "type": "uint256"
        }
      ],
      "stateMutability": "view",
      "type": "function"
    },
    {
      "inputs": [],
      "name": "commissionInheritancePlan",
      "outputs": [
        {
          "internalType": "uint256",
          "name": "",
          "type": "uint256"
        }
      ],
      "stateMutability": "view",
      "type": "function"
    },
    {
      "inputs": [],
      "name": "contractTotalCommissions",
      "outputs": [
        {
          "internalType": "uint256",
          "name": "",
          "type": "uint256"
        }
      ],
      "stateMutability": "view",
      "type": "function"
    },
    {
      "inputs": [
        {
          "components": [
            {
              "internalType": "enum CryptoRetirementPlan.PlanType",
              "name": "planType",
              "type": "uint8"
            },
            {
              "internalType": "uint256",
              "name": "dateAvailableToWithdraw",
              "type": "uint256"
            },
            {
              "components": [
                {
                  "internalType": "address",
                  "name": "heirAddress",
                  "type": "address"
                },
                {
                  "internalType": "string",
                  "name": "name",
                  "type": "string"
                }
              ],
              "internalType": "struct CryptoRetirementPlan.HeirParameter[]",
              "name": "heirs",
              "type": "tuple[]"
            },
            {
              "internalType": "uint256",
              "name": "totalDaysToProofOfLife",
              "type": "uint256"
            }
          ],
          "internalType": "struct CryptoRetirementPlan.PlanParameter",
          "name": "_plan",
          "type": "tuple"
        }
      ],
      "name": "createPlan",
      "outputs": [],
      "stateMutability": "payable",
      "type": "function"
    },
    {
      "inputs": [
        {
          "internalType": "enum CryptoRetirementPlan.PlanType",
          "name": "planType",
          "type": "uint8"
        }
      ],
      "name": "getCommission",
      "outputs": [
        {
          "internalType": "uint256",
          "name": "",
          "type": "uint256"
        }
      ],
      "stateMutability": "view",
      "type": "function"
    },
    {
      "inputs": [
        {
          "internalType": "address",
          "name": "heir",
          "type": "address"
        }
      ],
      "name": "getOwnersFromHeir",
      "outputs": [
        {
          "internalType": "address[]",
          "name": "",
          "type": "address[]"
        }
      ],
      "stateMutability": "view",
      "type": "function"
    },
    {
      "inputs": [
        {
          "internalType": "address",
          "name": "owner",
          "type": "address"
        }
      ],
      "name": "getPlanDetail",
      "outputs": [
        {
          "components": [
            {
              "internalType": "enum CryptoRetirementPlan.PlanType",
              "name": "planType",
              "type": "uint8"
            },
            {
              "internalType": "uint256",
              "name": "amount",
              "type": "uint256"
            },
            {
              "internalType": "uint256",
              "name": "dateAvailableToWithdraw",
              "type": "uint256"
            },
            {
              "internalType": "uint256",
              "name": "nextDateOfProofOfLife",
              "type": "uint256"
            },
            {
              "internalType": "uint256",
              "name": "commission",
              "type": "uint256"
            },
            {
              "components": [
                {
                  "internalType": "address",
                  "name": "heirAddress",
                  "type": "address"
                },
                {
                  "internalType": "string",
                  "name": "name",
                  "type": "string"
                },
                {
                  "internalType": "bool",
                  "name": "hasWithdrawn",
                  "type": "bool"
                }
              ],
              "internalType": "struct CryptoRetirementPlan.Heir[]",
              "name": "heirs",
              "type": "tuple[]"
            },
            {
              "internalType": "uint256",
              "name": "totalDaysToProofOfLife",
              "type": "uint256"
            }
          ],
          "internalType": "struct CryptoRetirementPlan.Plan",
          "name": "",
          "type": "tuple"
        }
      ],
      "stateMutability": "view",
      "type": "function"
    },
    {
      "inputs": [],
      "name": "giveProofOfLife",
      "outputs": [],
      "stateMutability": "nonpayable",
      "type": "function"
    },
    {
      "inputs": [],
      "name": "gracePeriodInDays",
      "outputs": [
        {
          "internalType": "uint256",
          "name": "",
          "type": "uint256"
        }
      ],
      "stateMutability": "view",
      "type": "function"
    },
    {
      "inputs": [
        {
          "internalType": "address",
          "name": "",
          "type": "address"
        },
        {
          "internalType": "uint256",
          "name": "",
          "type": "uint256"
        }
      ],
      "name": "heirsToOwners",
      "outputs": [
        {
          "internalType": "address",
          "name": "",
          "type": "address"
        }
      ],
      "stateMutability": "view",
      "type": "function"
    },
    {
      "inputs": [],
      "name": "minimumDaysDurationOfPlan",
      "outputs": [
        {
          "internalType": "uint256",
          "name": "",
          "type": "uint256"
        }
      ],
      "stateMutability": "view",
      "type": "function"
    },
    {
      "inputs": [
        {
          "internalType": "address",
          "name": "",
          "type": "address"
        }
      ],
      "name": "plans",
      "outputs": [
        {
          "internalType": "enum CryptoRetirementPlan.PlanType",
          "name": "planType",
          "type": "uint8"
        },
        {
          "internalType": "uint256",
          "name": "amount",
          "type": "uint256"
        },
        {
          "internalType": "uint256",
          "name": "dateAvailableToWithdraw",
          "type": "uint256"
        },
        {
          "internalType": "uint256",
          "name": "nextDateOfProofOfLife",
          "type": "uint256"
        },
        {
          "internalType": "uint256",
          "name": "commission",
          "type": "uint256"
        },
        {
          "internalType": "uint256",
          "name": "totalDaysToProofOfLife",
          "type": "uint256"
        }
      ],
      "stateMutability": "view",
      "type": "function"
    },
    {
      "inputs": [
        {
          "internalType": "address",
          "name": "heirAddress",
          "type": "address"
        }
      ],
      "name": "removeHeir",
      "outputs": [],
      "stateMutability": "nonpayable",
      "type": "function"
    },
    {
      "inputs": [
        {
          "internalType": "uint256",
          "name": "_gracePeriodInDays",
          "type": "uint256"
        }
      ],
      "name": "setGracePeriodInDays",
      "outputs": [],
      "stateMutability": "nonpayable",
      "type": "function"
    },
    {
      "inputs": [
        {
          "internalType": "uint256",
          "name": "_minimumDaysDurationOfPlan",
          "type": "uint256"
        }
      ],
      "name": "setMinimumDaysDurationOfPlan",
      "outputs": [],
      "stateMutability": "nonpayable",
      "type": "function"
    },
    {
      "inputs": [
        {
          "internalType": "address",
          "name": "a",
          "type": "address"
        }
      ],
      "name": "toBytes",
      "outputs": [
        {
          "internalType": "bytes",
          "name": "",
          "type": "bytes"
        }
      ],
      "stateMutability": "pure",
      "type": "function"
    },
    {
      "inputs": [
        {
          "internalType": "uint256",
          "name": "_basicCommission",
          "type": "uint256"
        },
        {
          "internalType": "uint256",
          "name": "_inheritanceCommission",
          "type": "uint256"
        },
        {
          "internalType": "uint256",
          "name": "_flexibleComission",
          "type": "uint256"
        }
      ],
      "name": "updateCommissions",
      "outputs": [],
      "stateMutability": "nonpayable",
      "type": "function"
    },
    {
      "inputs": [],
      "name": "withdrawCapitalContractOwner",
      "outputs": [],
      "stateMutability": "nonpayable",
      "type": "function"
    },
    {
      "inputs": [
        {
          "internalType": "address",
          "name": "owner",
          "type": "address"
        }
      ],
      "name": "withdrawCapitalHeir",
      "outputs": [],
      "stateMutability": "nonpayable",
      "type": "function"
    },
    {
      "inputs": [],
      "name": "withdrawCapitalOwner",
      "outputs": [],
      "stateMutability": "nonpayable",
      "type": "function"
    }
  ],
  "bytecode": "0x60806040523480156200001157600080fd5b5060405162005ce138038062005ce18339818101604052810190620000379190620000bc565b336000806101000a81548173ffffffffffffffffffffffffffffffffffffffff021916908373ffffffffffffffffffffffffffffffffffffffff1602179055508460048190555083600581905550826006819055508160078190555080600881905550505050505062000162565b600081519050620000b68162000148565b92915050565b600080600080600060a08688031215620000d557600080fd5b6000620000e588828901620000a5565b9550506020620000f888828901620000a5565b94505060406200010b88828901620000a5565b93505060606200011e88828901620000a5565b92505060806200013188828901620000a5565b9150509295509295909350565b6000819050919050565b62000153816200013e565b81146200015f57600080fd5b50565b615b6f80620001726000396000f3fe6080604052600436106101405760003560e01c806390e474e6116100b6578063dd120bb91161006f578063dd120bb91461042e578063e60ee70f14610445578063eb00ca2e14610470578063ebb9d2e3146104ad578063f22cdc94146104d6578063f7d7e11f146104ff57610140565b806390e474e61461034457806392dd511c1461036d5780639f88b1a114610398578063b9d3c3ce146103c3578063c1836567146103ee578063c872bde71461040557610140565b80636f536b34116101085780636f536b341461020b578063766e27cb146102365780638413dc5a1461027357806386d86d841461029c5780638bc19c51146102de5780638d98d0f51461031b57610140565b80631ff80e2814610145578063385833151461018257806338aa8812146101995780634a58db19146101c4578063593b79fe146101ce575b600080fd5b34801561015157600080fd5b5061016c60048036038101906101679190614476565b61051b565b6040516101799190615000565b60405180910390f35b34801561018e57600080fd5b5061019761062d565b005b3480156101a557600080fd5b506101ae6109ac565b6040516101bb9190615000565b60405180910390f35b6101cc6109b2565b005b3480156101da57600080fd5b506101f560048036038101906101f091906143d0565b610b59565b6040516102029190614c1b565b60405180910390f35b34801561021757600080fd5b50610220610b82565b60405161022d9190615000565b60405180910390f35b34801561024257600080fd5b5061025d600480360381019061025891906143d0565b610b88565b60405161026a9190614bf9565b60405180910390f35b34801561027f57600080fd5b5061029a600480360381019061029591906144e0565b610c55565b005b3480156102a857600080fd5b506102c360048036038101906102be91906143d0565b610d30565b6040516102d596959493929190614c3d565b60405180910390f35b3480156102ea57600080fd5b50610305600480360381019061030091906143d0565b610d79565b6040516103129190614fde565b60405180910390f35b34801561032757600080fd5b50610342600480360381019061033d91906143d0565b610fed565b005b34801561035057600080fd5b5061036b600480360381019061036691906144e0565b611c17565b005b34801561037957600080fd5b50610382611cff565b60405161038f9190615000565b60405180910390f35b3480156103a457600080fd5b506103ad611d05565b6040516103ba9190615000565b60405180910390f35b3480156103cf57600080fd5b506103d8611d0b565b6040516103e59190615000565b60405180910390f35b3480156103fa57600080fd5b50610403611d11565b005b34801561041157600080fd5b5061042c60048036038101906104279190614509565b611e4f565b005b34801561043a57600080fd5b50610443611fea565b005b34801561045157600080fd5b5061045a6123a1565b6040516104679190615000565b60405180910390f35b34801561047c57600080fd5b50610497600480360381019061049291906143f9565b6123a7565b6040516104a49190614bde565b60405180910390f35b3480156104b957600080fd5b506104d460048036038101906104cf91906143d0565b6123f5565b005b3480156104e257600080fd5b506104fd60048036038101906104f89190614435565b612c4f565b005b6105196004803603810190610514919061449f565b613397565b005b6000806002811115610556577f4e487b7100000000000000000000000000000000000000000000000000000000600052602160045260246000fd5b82600281111561058f577f4e487b7100000000000000000000000000000000000000000000000000000000600052602160045260246000fd5b141561059f576004549050610628565b600160028111156105d9577f4e487b7100000000000000000000000000000000000000000000000000000000600052602160045260246000fd5b826002811115610612577f4e487b7100000000000000000000000000000000000000000000000000000000600052602160045260246000fd5b1415610622576005549050610628565b60065490505b919050565b6000600160003373ffffffffffffffffffffffffffffffffffffffff1673ffffffffffffffffffffffffffffffffffffffff16815260200190815260200160002060020154116106b2576040517f08c379a00000000000000000000000000000000000000000000000000000000081526004016106a990614e3e565b60405180910390fd5b6000600160003373ffffffffffffffffffffffffffffffffffffffff1673ffffffffffffffffffffffffffffffffffffffff1681526020019081526020016000206001015411610737576040517f08c379a000000000000000000000000000000000000000000000000000000000815260040161072e90614e9e565b60405180910390fd5b42600160003373ffffffffffffffffffffffffffffffffffffffff1673ffffffffffffffffffffffffffffffffffffffff16815260200190815260200160002060020154106107bb576040517f08c379a00000000000000000000000000000000000000000000000000000000081526004016107b290614ede565b60405180910390fd5b60006064600160003373ffffffffffffffffffffffffffffffffffffffff1673ffffffffffffffffffffffffffffffffffffffff16815260200190815260200160002060040154600160003373ffffffffffffffffffffffffffffffffffffffff1673ffffffffffffffffffffffffffffffffffffffff1681526020019081526020016000206001015461084f91906151df565b61085991906151ae565b9050600081600160003373ffffffffffffffffffffffffffffffffffffffff1673ffffffffffffffffffffffffffffffffffffffff168152602001908152602001600020600101546108ab9190615239565b9050600160003373ffffffffffffffffffffffffffffffffffffffff1673ffffffffffffffffffffffffffffffffffffffff16815260200190815260200160002060010154600160003373ffffffffffffffffffffffffffffffffffffffff1673ffffffffffffffffffffffffffffffffffffffff16815260200190815260200160002060010160008282546109419190615239565b92505081905550816002600082825461095a9190615158565b925050819055503373ffffffffffffffffffffffffffffffffffffffff166108fc829081150290604051600060405180830381858888f193505050501580156109a7573d6000803e3d6000fd5b505050565b60045481565b6000600160003373ffffffffffffffffffffffffffffffffffffffff1673ffffffffffffffffffffffffffffffffffffffff1681526020019081526020016000206002015411610a37576040517f08c379a0000000000000000000000000000000000000000000000000000000008152600401610a2e90614e3e565b60405180910390fd5b60003411610a7a576040517f08c379a0000000000000000000000000000000000000000000000000000000008152600401610a7190614d3e565b60405180910390fd5b42600160003373ffffffffffffffffffffffffffffffffffffffff1673ffffffffffffffffffffffffffffffffffffffff1681526020019081526020016000206002015411610afe576040517f08c379a0000000000000000000000000000000000000000000000000000000008152600401610af590614e1e565b60405180910390fd5b34600160003373ffffffffffffffffffffffffffffffffffffffff1673ffffffffffffffffffffffffffffffffffffffff1681526020019081526020016000206001016000828254610b509190615158565b92505081905550565b606081604051602001610b6c9190614bc3565b6040516020818303038152906040529050919050565b60055481565b6060600360008373ffffffffffffffffffffffffffffffffffffffff1673ffffffffffffffffffffffffffffffffffffffff168152602001908152602001600020805480602002602001604051908101604052809291908181526020018280548015610c4957602002820191906000526020600020905b8160009054906101000a900473ffffffffffffffffffffffffffffffffffffffff1673ffffffffffffffffffffffffffffffffffffffff1681526020019060010190808311610bff575b50505050509050919050565b60008054906101000a900473ffffffffffffffffffffffffffffffffffffffff1673ffffffffffffffffffffffffffffffffffffffff163373ffffffffffffffffffffffffffffffffffffffff1614610ce3576040517f08c379a0000000000000000000000000000000000000000000000000000000008152600401610cda90614dbe565b60405180910390fd5b60008111610d26576040517f08c379a0000000000000000000000000000000000000000000000000000000008152600401610d1d90614dde565b60405180910390fd5b8060078190555050565b60016020528060005260406000206000915090508060000160009054906101000a900460ff16908060010154908060020154908060030154908060040154908060060154905086565b610d81613f1a565b600160008373ffffffffffffffffffffffffffffffffffffffff1673ffffffffffffffffffffffffffffffffffffffff1681526020019081526020016000206040518060e00160405290816000820160009054906101000a900460ff166002811115610e16577f4e487b7100000000000000000000000000000000000000000000000000000000600052602160045260246000fd5b6002811115610e4e577f4e487b7100000000000000000000000000000000000000000000000000000000600052602160045260246000fd5b81526020016001820154815260200160028201548152602001600382015481526020016004820154815260200160058201805480602002602001604051908101604052809291908181526020016000905b82821015610fd457838290600052602060002090600302016040518060600160405290816000820160009054906101000a900473ffffffffffffffffffffffffffffffffffffffff1673ffffffffffffffffffffffffffffffffffffffff1673ffffffffffffffffffffffffffffffffffffffff168152602001600182018054610f289061531c565b80601f0160208091040260200160405190810160405280929190818152602001828054610f549061531c565b8015610fa15780601f10610f7657610100808354040283529160200191610fa1565b820191906000526020600020905b815481529060010190602001808311610f8457829003601f168201915b505050505081526020016002820160009054906101000a900460ff16151515158152505081526020019060010190610e9f565b5050505081526020016006820154815250509050919050565b6000805b600360003373ffffffffffffffffffffffffffffffffffffffff1673ffffffffffffffffffffffffffffffffffffffff1681526020019081526020016000208054905081101561112c5760006110e7600360003373ffffffffffffffffffffffffffffffffffffffff1673ffffffffffffffffffffffffffffffffffffffff16815260200190815260200160002083815481106110b7577f4e487b7100000000000000000000000000000000000000000000000000000000600052603260045260246000fd5b9060005260206000200160009054906101000a900473ffffffffffffffffffffffffffffffffffffffff16610b59565b905060006110f485610b59565b90508080519060200120828051906020012014156111175760019350505061112c565b505080806111249061537f565b915050610ff1565b508061116d576040517f08c379a000000000000000000000000000000000000000000000000000000000815260040161116490614dfe565b60405180910390fd5b6000600160008473ffffffffffffffffffffffffffffffffffffffff1673ffffffffffffffffffffffffffffffffffffffff16815260200190815260200160002060010154116111f2576040517f08c379a00000000000000000000000000000000000000000000000000000000081526004016111e990614e9e565b60405180910390fd5b42600160008473ffffffffffffffffffffffffffffffffffffffff1673ffffffffffffffffffffffffffffffffffffffff1681526020019081526020016000206002015410611276576040517f08c379a000000000000000000000000000000000000000000000000000000000815260040161126d90614ede565b60405180910390fd5b600060028111156112b0577f4e487b7100000000000000000000000000000000000000000000000000000000600052602160045260246000fd5b600160008473ffffffffffffffffffffffffffffffffffffffff1673ffffffffffffffffffffffffffffffffffffffff16815260200190815260200160002060000160009054906101000a900460ff166002811115611338577f4e487b7100000000000000000000000000000000000000000000000000000000600052602160045260246000fd5b148061146c575060006002811115611379577f4e487b7100000000000000000000000000000000000000000000000000000000600052602160045260246000fd5b600160008473ffffffffffffffffffffffffffffffffffffffff1673ffffffffffffffffffffffffffffffffffffffff16815260200190815260200160002060000160009054906101000a900460ff166002811115611401577f4e487b7100000000000000000000000000000000000000000000000000000000600052602160045260246000fd5b1415801561146b5750426201518060085461141c91906151df565b600160008573ffffffffffffffffffffffffffffffffffffffff1673ffffffffffffffffffffffffffffffffffffffff168152602001908152602001600020600201546114699190615158565b105b5b6114ab576040517f08c379a00000000000000000000000000000000000000000000000000000000081526004016114a290614f5e565b60405180910390fd5b600160028111156114e5577f4e487b7100000000000000000000000000000000000000000000000000000000600052602160045260246000fd5b600160008473ffffffffffffffffffffffffffffffffffffffff1673ffffffffffffffffffffffffffffffffffffffff16815260200190815260200160002060000160009054906101000a900460ff16600281111561156d577f4e487b7100000000000000000000000000000000000000000000000000000000600052602160045260246000fd5b148061163757506002808111156115ad577f4e487b7100000000000000000000000000000000000000000000000000000000600052602160045260246000fd5b600160008473ffffffffffffffffffffffffffffffffffffffff1673ffffffffffffffffffffffffffffffffffffffff16815260200190815260200160002060000160009054906101000a900460ff166002811115611635577f4e487b7100000000000000000000000000000000000000000000000000000000600052602160045260246000fd5b145b611676576040517f08c379a000000000000000000000000000000000000000000000000000000000815260040161166d90614d7e565b60405180910390fd5b6000600160008473ffffffffffffffffffffffffffffffffffffffff1673ffffffffffffffffffffffffffffffffffffffff16815260200190815260200160002060050180549050905060005b600160008573ffffffffffffffffffffffffffffffffffffffff1673ffffffffffffffffffffffffffffffffffffffff168152602001908152602001600020600501805490508110156117d157600160008573ffffffffffffffffffffffffffffffffffffffff1673ffffffffffffffffffffffffffffffffffffffff168152602001908152602001600020600501818154811061178a577f4e487b7100000000000000000000000000000000000000000000000000000000600052603260045260246000fd5b906000526020600020906003020160020160009054906101000a900460ff16156117be576001826117bb9190615239565b91505b80806117c99061537f565b9150506116c3565b5060005b600160008573ffffffffffffffffffffffffffffffffffffffff1673ffffffffffffffffffffffffffffffffffffffff16815260200190815260200160002060050180549050811015611a95573373ffffffffffffffffffffffffffffffffffffffff16600160008673ffffffffffffffffffffffffffffffffffffffff1673ffffffffffffffffffffffffffffffffffffffff16815260200190815260200160002060050182815481106118b3577f4e487b7100000000000000000000000000000000000000000000000000000000600052603260045260246000fd5b906000526020600020906003020160000160009054906101000a900473ffffffffffffffffffffffffffffffffffffffff1673ffffffffffffffffffffffffffffffffffffffff161415611a8257600160008573ffffffffffffffffffffffffffffffffffffffff1673ffffffffffffffffffffffffffffffffffffffff168152602001908152602001600020600501818154811061197b577f4e487b7100000000000000000000000000000000000000000000000000000000600052603260045260246000fd5b906000526020600020906003020160020160009054906101000a900460ff16156119da576040517f08c379a00000000000000000000000000000000000000000000000000000000081526004016119d190614d1e565b60405180910390fd5b60018060008673ffffffffffffffffffffffffffffffffffffffff1673ffffffffffffffffffffffffffffffffffffffff1681526020019081526020016000206005018281548110611a55577f4e487b7100000000000000000000000000000000000000000000000000000000600052603260045260246000fd5b906000526020600020906003020160020160006101000a81548160ff021916908315150217905550611a95565b8080611a8d9061537f565b9150506117d5565b50600081600160008673ffffffffffffffffffffffffffffffffffffffff1673ffffffffffffffffffffffffffffffffffffffff16815260200190815260200160002060010154611ae691906151ae565b905060006064600160008773ffffffffffffffffffffffffffffffffffffffff1673ffffffffffffffffffffffffffffffffffffffff1681526020019081526020016000206004015483611b3a91906151df565b611b4491906151ae565b905060008183611b549190615239565b905082600160008873ffffffffffffffffffffffffffffffffffffffff1673ffffffffffffffffffffffffffffffffffffffff1681526020019081526020016000206001016000828254611ba89190615239565b925050819055508160026000828254611bc19190615158565b925050819055503373ffffffffffffffffffffffffffffffffffffffff166108fc829081150290604051600060405180830381858888f19350505050158015611c0e573d6000803e3d6000fd5b50505050505050565b60008054906101000a900473ffffffffffffffffffffffffffffffffffffffff1673ffffffffffffffffffffffffffffffffffffffff163373ffffffffffffffffffffffffffffffffffffffff1614611ca5576040517f08c379a0000000000000000000000000000000000000000000000000000000008152600401611c9c90614dbe565b60405180910390fd5b605a81118015611cb657506102d081105b611cf5576040517f08c379a0000000000000000000000000000000000000000000000000000000008152600401611cec90614cbe565b60405180910390fd5b8060088190555050565b60065481565b60085481565b60025481565b60008054906101000a900473ffffffffffffffffffffffffffffffffffffffff1673ffffffffffffffffffffffffffffffffffffffff163373ffffffffffffffffffffffffffffffffffffffff1614611d9f576040517f08c379a0000000000000000000000000000000000000000000000000000000008152600401611d9690614dbe565b60405180910390fd5b600060025411611de4576040517f08c379a0000000000000000000000000000000000000000000000000000000008152600401611ddb90614d5e565b60405180910390fd5b60008054906101000a900473ffffffffffffffffffffffffffffffffffffffff1673ffffffffffffffffffffffffffffffffffffffff166108fc6002549081150290604051600060405180830381858888f19350505050158015611e4c573d6000803e3d6000fd5b50565b60008054906101000a900473ffffffffffffffffffffffffffffffffffffffff1673ffffffffffffffffffffffffffffffffffffffff163373ffffffffffffffffffffffffffffffffffffffff1614611edd576040517f08c379a0000000000000000000000000000000000000000000000000000000008152600401611ed490614dbe565b60405180910390fd5b60008310158015611eef5750600a8311155b611f2e576040517f08c379a0000000000000000000000000000000000000000000000000000000008152600401611f2590614c9e565b60405180910390fd5b60008210158015611f405750600a8211155b611f7f576040517f08c379a0000000000000000000000000000000000000000000000000000000008152600401611f7690614c9e565b60405180910390fd5b60008110158015611f915750600a8111155b611fd0576040517f08c379a0000000000000000000000000000000000000000000000000000000008152600401611fc790614c9e565b60405180910390fd5b826004819055508160058190555080600681905550505050565b6000600160003373ffffffffffffffffffffffffffffffffffffffff1673ffffffffffffffffffffffffffffffffffffffff168152602001908152602001600020600201541161206f576040517f08c379a000000000000000000000000000000000000000000000000000000000815260040161206690614e3e565b60405180910390fd5b6000600160003373ffffffffffffffffffffffffffffffffffffffff1673ffffffffffffffffffffffffffffffffffffffff16815260200190815260200160002060010154116120f4576040517f08c379a00000000000000000000000000000000000000000000000000000000081526004016120eb90614e9e565b60405180910390fd5b42600160003373ffffffffffffffffffffffffffffffffffffffff1673ffffffffffffffffffffffffffffffffffffffff1681526020019081526020016000206002015410612178576040517f08c379a000000000000000000000000000000000000000000000000000000000815260040161216f90614ede565b60405180910390fd5b6002808111156121b1577f4e487b7100000000000000000000000000000000000000000000000000000000600052602160045260246000fd5b600160003373ffffffffffffffffffffffffffffffffffffffff1673ffffffffffffffffffffffffffffffffffffffff16815260200190815260200160002060000160009054906101000a900460ff166002811115612239577f4e487b7100000000000000000000000000000000000000000000000000000000600052602160045260246000fd5b14612279576040517f08c379a000000000000000000000000000000000000000000000000000000000815260040161227090614efe565b60405180910390fd5b42600160003373ffffffffffffffffffffffffffffffffffffffff1673ffffffffffffffffffffffffffffffffffffffff16815260200190815260200160002060030154106122fd576040517f08c379a00000000000000000000000000000000000000000000000000000000081526004016122f490614f7e565b60405180910390fd5b62015180600160003373ffffffffffffffffffffffffffffffffffffffff1673ffffffffffffffffffffffffffffffffffffffff1681526020019081526020016000206006015461234e91906151df565b426123599190615158565b600160003373ffffffffffffffffffffffffffffffffffffffff1673ffffffffffffffffffffffffffffffffffffffff16815260200190815260200160002060030181905550565b60075481565b600360205281600052604060002081815481106123c357600080fd5b906000526020600020016000915091509054906101000a900473ffffffffffffffffffffffffffffffffffffffff1681565b6000600160003373ffffffffffffffffffffffffffffffffffffffff1673ffffffffffffffffffffffffffffffffffffffff168152602001908152602001600020600201541161247a576040517f08c379a000000000000000000000000000000000000000000000000000000000815260040161247190614e3e565b60405180910390fd5b6000600160003373ffffffffffffffffffffffffffffffffffffffff1673ffffffffffffffffffffffffffffffffffffffff16815260200190815260200160002060010154116124ff576040517f08c379a00000000000000000000000000000000000000000000000000000000081526004016124f690614e9e565b60405180910390fd5b60016002811115612539577f4e487b7100000000000000000000000000000000000000000000000000000000600052602160045260246000fd5b600160003373ffffffffffffffffffffffffffffffffffffffff1673ffffffffffffffffffffffffffffffffffffffff16815260200190815260200160002060000160009054906101000a900460ff1660028111156125c1577f4e487b7100000000000000000000000000000000000000000000000000000000600052602160045260246000fd5b148061268b5750600280811115612601577f4e487b7100000000000000000000000000000000000000000000000000000000600052602160045260246000fd5b600160003373ffffffffffffffffffffffffffffffffffffffff1673ffffffffffffffffffffffffffffffffffffffff16815260200190815260200160002060000160009054906101000a900460ff166002811115612689577f4e487b7100000000000000000000000000000000000000000000000000000000600052602160045260246000fd5b145b6126ca576040517f08c379a00000000000000000000000000000000000000000000000000000000081526004016126c190614f3e565b60405180910390fd5b42600160003373ffffffffffffffffffffffffffffffffffffffff1673ffffffffffffffffffffffffffffffffffffffff168152602001908152602001600020600201541161274e576040517f08c379a000000000000000000000000000000000000000000000000000000000815260040161274590614e1e565b60405180910390fd5b60005b600160003373ffffffffffffffffffffffffffffffffffffffff1673ffffffffffffffffffffffffffffffffffffffff16815260200190815260200160002060050180549050811015612b88578173ffffffffffffffffffffffffffffffffffffffff16600160003373ffffffffffffffffffffffffffffffffffffffff1673ffffffffffffffffffffffffffffffffffffffff168152602001908152602001600020600501828154811061282f577f4e487b7100000000000000000000000000000000000000000000000000000000600052603260045260246000fd5b906000526020600020906003020160000160009054906101000a900473ffffffffffffffffffffffffffffffffffffffff1673ffffffffffffffffffffffffffffffffffffffff161415612b7557600160003373ffffffffffffffffffffffffffffffffffffffff1673ffffffffffffffffffffffffffffffffffffffff16815260200190815260200160002060050160018060003373ffffffffffffffffffffffffffffffffffffffff1673ffffffffffffffffffffffffffffffffffffffff168152602001908152602001600020600501805490506129109190615239565b81548110612947577f4e487b7100000000000000000000000000000000000000000000000000000000600052603260045260246000fd5b9060005260206000209060030201600160003373ffffffffffffffffffffffffffffffffffffffff1673ffffffffffffffffffffffffffffffffffffffff16815260200190815260200160002060050182815481106129cf577f4e487b7100000000000000000000000000000000000000000000000000000000600052603260045260246000fd5b90600052602060002090600302016000820160009054906101000a900473ffffffffffffffffffffffffffffffffffffffff168160000160006101000a81548173ffffffffffffffffffffffffffffffffffffffff021916908373ffffffffffffffffffffffffffffffffffffffff1602179055506001820181600101908054612a589061531c565b612a63929190613f8f565b506002820160009054906101000a900460ff168160020160006101000a81548160ff021916908315150217905550905050600160003373ffffffffffffffffffffffffffffffffffffffff1673ffffffffffffffffffffffffffffffffffffffff168152602001908152602001600020600501805480612b0c577f4e487b7100000000000000000000000000000000000000000000000000000000600052603160045260246000fd5b6001900381819060005260206000209060030201600080820160006101000a81549073ffffffffffffffffffffffffffffffffffffffff0219169055600182016000612b58919061401c565b6002820160006101000a81549060ff021916905550509055612b88565b8080612b809061537f565b915050612751565b50600067ffffffffffffffff811115612bca577f4e487b7100000000000000000000000000000000000000000000000000000000600052604160045260246000fd5b604051908082528060200260200182016040528015612bf85781602001602082028036833780820191505090505b50600360008373ffffffffffffffffffffffffffffffffffffffff1673ffffffffffffffffffffffffffffffffffffffff1681526020019081526020016000209080519060200190612c4b92919061405c565b5050565b6000600160003373ffffffffffffffffffffffffffffffffffffffff1673ffffffffffffffffffffffffffffffffffffffff1681526020019081526020016000206002015411612cd4576040517f08c379a0000000000000000000000000000000000000000000000000000000008152600401612ccb90614e3e565b60405180910390fd5b6000600160003373ffffffffffffffffffffffffffffffffffffffff1673ffffffffffffffffffffffffffffffffffffffff1681526020019081526020016000206001015411612d59576040517f08c379a0000000000000000000000000000000000000000000000000000000008152600401612d5090614e9e565b60405180910390fd5b60016002811115612d93577f4e487b7100000000000000000000000000000000000000000000000000000000600052602160045260246000fd5b600160003373ffffffffffffffffffffffffffffffffffffffff1673ffffffffffffffffffffffffffffffffffffffff16815260200190815260200160002060000160009054906101000a900460ff166002811115612e1b577f4e487b7100000000000000000000000000000000000000000000000000000000600052602160045260246000fd5b1480612ee55750600280811115612e5b577f4e487b7100000000000000000000000000000000000000000000000000000000600052602160045260246000fd5b600160003373ffffffffffffffffffffffffffffffffffffffff1673ffffffffffffffffffffffffffffffffffffffff16815260200190815260200160002060000160009054906101000a900460ff166002811115612ee3577f4e487b7100000000000000000000000000000000000000000000000000000000600052602160045260246000fd5b145b612f24576040517f08c379a0000000000000000000000000000000000000000000000000000000008152600401612f1b90614cfe565b60405180910390fd5b42600160003373ffffffffffffffffffffffffffffffffffffffff1673ffffffffffffffffffffffffffffffffffffffff1681526020019081526020016000206002015411612fa8576040517f08c379a0000000000000000000000000000000000000000000000000000000008152600401612f9f90614e1e565b60405180910390fd5b60005b8151811015613393576000828281518110612fef577f4e487b7100000000000000000000000000000000000000000000000000000000600052603260045260246000fd5b602002602001015160200151511161303c576040517f08c379a000000000000000000000000000000000000000000000000000000000815260040161303390614cde565b60405180910390fd5b3373ffffffffffffffffffffffffffffffffffffffff1682828151811061308c577f4e487b7100000000000000000000000000000000000000000000000000000000600052603260045260246000fd5b60200260200101516000015173ffffffffffffffffffffffffffffffffffffffff1614156130ef576040517f08c379a00000000000000000000000000000000000000000000000000000000081526004016130e690614ebe565b60405180910390fd5b600160003373ffffffffffffffffffffffffffffffffffffffff1673ffffffffffffffffffffffffffffffffffffffff1681526020019081526020016000206005016040518060600160405280848481518110613175577f4e487b7100000000000000000000000000000000000000000000000000000000600052603260045260246000fd5b60200260200101516000015173ffffffffffffffffffffffffffffffffffffffff1681526020018484815181106131d5577f4e487b7100000000000000000000000000000000000000000000000000000000600052603260045260246000fd5b602002602001015160200151815260200160001515815250908060018154018082558091505060019003906000526020600020906003020160009091909190915060008201518160000160006101000a81548173ffffffffffffffffffffffffffffffffffffffff021916908373ffffffffffffffffffffffffffffffffffffffff16021790555060208201518160010190805190602001906132799291906140e6565b5060408201518160020160006101000a81548160ff0219169083151502179055505050600360008383815181106132d9577f4e487b7100000000000000000000000000000000000000000000000000000000600052603260045260246000fd5b60200260200101516000015173ffffffffffffffffffffffffffffffffffffffff1673ffffffffffffffffffffffffffffffffffffffff168152602001908152602001600020339080600181540180825580915050600190039060005260206000200160009091909190916101000a81548173ffffffffffffffffffffffffffffffffffffffff021916908373ffffffffffffffffffffffffffffffffffffffff160217905550808061338b9061537f565b915050612fab565b5050565b6000600160003373ffffffffffffffffffffffffffffffffffffffff1673ffffffffffffffffffffffffffffffffffffffff168152602001908152602001600020600201541461341c576040517f08c379a000000000000000000000000000000000000000000000000000000000815260040161341390614d9e565b60405180910390fd5b6000341161345f576040517f08c379a000000000000000000000000000000000000000000000000000000000815260040161345690614d3e565b60405180910390fd5b60006002811115613499577f4e487b7100000000000000000000000000000000000000000000000000000000600052602160045260246000fd5b816000015160028111156134d6577f4e487b7100000000000000000000000000000000000000000000000000000000600052602160045260246000fd5b1480613556575060016002811115613517577f4e487b7100000000000000000000000000000000000000000000000000000000600052602160045260246000fd5b81600001516002811115613554577f4e487b7100000000000000000000000000000000000000000000000000000000600052602160045260246000fd5b145b806135d45750600280811115613595577f4e487b7100000000000000000000000000000000000000000000000000000000600052602160045260246000fd5b816000015160028111156135d2577f4e487b7100000000000000000000000000000000000000000000000000000000600052602160045260246000fd5b145b613613576040517f08c379a000000000000000000000000000000000000000000000000000000000815260040161360a90614e7e565b60405180910390fd5b6201518060075461362491906151df565b4261362f9190615158565b816020015111613674576040517f08c379a000000000000000000000000000000000000000000000000000000000815260040161366b90614fbe565b60405180910390fd5b600060028111156136ae577f4e487b7100000000000000000000000000000000000000000000000000000000600052602160045260246000fd5b816000015160028111156136eb577f4e487b7100000000000000000000000000000000000000000000000000000000600052602160045260246000fd5b141561378557600081604001515114613739576040517f08c379a000000000000000000000000000000000000000000000000000000000815260040161373090614f9e565b60405180910390fd5b6000816060015114613780576040517f08c379a000000000000000000000000000000000000000000000000000000000815260040161377790614e5e565b60405180910390fd5b6138ca565b600160028111156137bf577f4e487b7100000000000000000000000000000000000000000000000000000000600052602160045260246000fd5b816000015160028111156137fc577f4e487b7100000000000000000000000000000000000000000000000000000000600052602160045260246000fd5b148061387b575060028081111561383c577f4e487b7100000000000000000000000000000000000000000000000000000000600052602160045260246000fd5b81600001516002811115613879577f4e487b7100000000000000000000000000000000000000000000000000000000600052602160045260246000fd5b145b156138c9576000816040015151116138c8576040517f08c379a00000000000000000000000000000000000000000000000000000000081526004016138bf90614f1e565b60405180910390fd5b5b5b6000600160003373ffffffffffffffffffffffffffffffffffffffff1673ffffffffffffffffffffffffffffffffffffffff168152602001908152602001600020905081600001518160000160006101000a81548160ff0219169083600281111561395e577f4e487b7100000000000000000000000000000000000000000000000000000000600052602160045260246000fd5b0217905550348160010181905550816020015181600201819055506002808111156139b2577f4e487b7100000000000000000000000000000000000000000000000000000000600052602160045260246000fd5b826000015160028111156139ef577f4e487b7100000000000000000000000000000000000000000000000000000000600052602160045260246000fd5b1415613a295781606001518160060181905550620151808260600151613a1591906151df565b42613a209190615158565b81600301819055505b60006002811115613a63577f4e487b7100000000000000000000000000000000000000000000000000000000600052602160045260246000fd5b82600001516002811115613aa0577f4e487b7100000000000000000000000000000000000000000000000000000000600052602160045260246000fd5b1415613ab6576004548160040181905550613b50565b60016002811115613af0577f4e487b7100000000000000000000000000000000000000000000000000000000600052602160045260246000fd5b82600001516002811115613b2d577f4e487b7100000000000000000000000000000000000000000000000000000000600052602160045260246000fd5b1415613b43576005548160040181905550613b4f565b60065481600401819055505b5b60005b826040015151811015613f1557600083604001518281518110613b9f577f4e487b7100000000000000000000000000000000000000000000000000000000600052603260045260246000fd5b6020026020010151602001515111613bec576040517f08c379a0000000000000000000000000000000000000000000000000000000008152600401613be390614cde565b60405180910390fd5b3373ffffffffffffffffffffffffffffffffffffffff1683604001518281518110613c40577f4e487b7100000000000000000000000000000000000000000000000000000000600052603260045260246000fd5b60200260200101516000015173ffffffffffffffffffffffffffffffffffffffff161415613ca3576040517f08c379a0000000000000000000000000000000000000000000000000000000008152600401613c9a90614ebe565b60405180910390fd5b6003600084604001518381518110613ce4577f4e487b7100000000000000000000000000000000000000000000000000000000600052603260045260246000fd5b60200260200101516000015173ffffffffffffffffffffffffffffffffffffffff1673ffffffffffffffffffffffffffffffffffffffff168152602001908152602001600020339080600181540180825580915050600190039060005260206000200160009091909190916101000a81548173ffffffffffffffffffffffffffffffffffffffff021916908373ffffffffffffffffffffffffffffffffffffffff16021790555081600501604051806060016040528085604001518481518110613dd7577f4e487b7100000000000000000000000000000000000000000000000000000000600052603260045260246000fd5b60200260200101516000015173ffffffffffffffffffffffffffffffffffffffff16815260200185604001518481518110613e3b577f4e487b7100000000000000000000000000000000000000000000000000000000600052603260045260246000fd5b602002602001015160200151815260200160001515815250908060018154018082558091505060019003906000526020600020906003020160009091909190915060008201518160000160006101000a81548173ffffffffffffffffffffffffffffffffffffffff021916908373ffffffffffffffffffffffffffffffffffffffff1602179055506020820151816001019080519060200190613edf9291906140e6565b5060408201518160020160006101000a81548160ff02191690831515021790555050508080613f0d9061537f565b915050613b53565b505050565b6040518060e0016040528060006002811115613f5f577f4e487b7100000000000000000000000000000000000000000000000000000000600052602160045260246000fd5b81526020016000815260200160008152602001600081526020016000815260200160608152602001600081525090565b828054613f9b9061531c565b90600052602060002090601f016020900481019282613fbd576000855561400b565b82601f10613fce578054855561400b565b8280016001018555821561400b57600052602060002091601f016020900482015b8281111561400a578254825591600101919060010190613fef565b5b509050614018919061416c565b5090565b5080546140289061531c565b6000825580601f1061403a5750614059565b601f016020900490600052602060002090810190614058919061416c565b5b50565b8280548282559060005260206000209081019282156140d5579160200282015b828111156140d45782518260006101000a81548173ffffffffffffffffffffffffffffffffffffffff021916908373ffffffffffffffffffffffffffffffffffffffff1602179055509160200191906001019061407c565b5b5090506140e2919061416c565b5090565b8280546140f29061531c565b90600052602060002090601f016020900481019282614114576000855561415b565b82601f1061412d57805160ff191683800117855561415b565b8280016001018555821561415b579182015b8281111561415a57825182559160200191906001019061413f565b5b509050614168919061416c565b5090565b5b8082111561418557600081600090555060010161416d565b5090565b600061419c61419784615040565b61501b565b905080838252602082019050828560208602820111156141bb57600080fd5b60005b8581101561420557813567ffffffffffffffff8111156141dd57600080fd5b8086016141ea89826142cb565b855260208501945060208401935050506001810190506141be565b5050509392505050565b600061422261421d8461506c565b61501b565b90508281526020810184848401111561423a57600080fd5b6142458482856152da565b509392505050565b60008135905061425c81615afb565b92915050565b600082601f83011261427357600080fd5b8135614283848260208601614189565b91505092915050565b60008135905061429b81615b12565b92915050565b600082601f8301126142b257600080fd5b81356142c284826020860161420f565b91505092915050565b6000604082840312156142dd57600080fd5b6142e7604061501b565b905060006142f78482850161424d565b600083015250602082013567ffffffffffffffff81111561431757600080fd5b614323848285016142a1565b60208301525092915050565b60006080828403121561434157600080fd5b61434b608061501b565b9050600061435b8482850161428c565b600083015250602061436f848285016143bb565b602083015250604082013567ffffffffffffffff81111561438f57600080fd5b61439b84828501614262565b60408301525060606143af848285016143bb565b60608301525092915050565b6000813590506143ca81615b22565b92915050565b6000602082840312156143e257600080fd5b60006143f08482850161424d565b91505092915050565b6000806040838503121561440c57600080fd5b600061441a8582860161424d565b925050602061442b858286016143bb565b9150509250929050565b60006020828403121561444757600080fd5b600082013567ffffffffffffffff81111561446157600080fd5b61446d84828501614262565b91505092915050565b60006020828403121561448857600080fd5b60006144968482850161428c565b91505092915050565b6000602082840312156144b157600080fd5b600082013567ffffffffffffffff8111156144cb57600080fd5b6144d78482850161432f565b91505092915050565b6000602082840312156144f257600080fd5b6000614500848285016143bb565b91505092915050565b60008060006060848603121561451e57600080fd5b600061452c868287016143bb565b935050602061453d868287016143bb565b925050604061454e868287016143bb565b9150509250925092565b60006145648383614584565b60208301905092915050565b600061457c8383614ab9565b905092915050565b61458d8161526d565b82525050565b61459c8161526d565b82525050565b6145b36145ae8261526d565b6153c8565b82525050565b60006145c4826150bd565b6145ce8185615103565b93506145d98361509d565b8060005b8381101561460a5781516145f18882614558565b97506145fc836150e9565b9250506001810190506145dd565b5085935050505092915050565b6000614622826150c8565b61462c8185615114565b93508360208202850161463e856150ad565b8060005b8581101561467a578484038952815161465b8582614570565b9450614666836150f6565b925060208a01995050600181019050614642565b50829750879550505050505092915050565b6146958161527f565b82525050565b60006146a6826150d3565b6146b08185615125565b93506146c08185602086016152e9565b6146c9816154d7565b840191505092915050565b6146dd816152c8565b82525050565b6146ec816152c8565b82525050565b60006146fd826150de565b6147078185615136565b93506147178185602086016152e9565b614720816154d7565b840191505092915050565b6000614738601283615147565b9150614743826154f5565b602082019050919050565b600061475b601483615147565b91506147668261551e565b602082019050919050565b600061477e601483615147565b915061478982615547565b602082019050919050565b60006147a1602183615147565b91506147ac82615570565b604082019050919050565b60006147c4601a83615147565b91506147cf826155bf565b602082019050919050565b60006147e7602083615147565b91506147f2826155e8565b602082019050919050565b600061480a602083615147565b915061481582615611565b602082019050919050565b600061482d602283615147565b91506148388261563a565b604082019050919050565b6000614850601c83615147565b915061485b82615689565b602082019050919050565b6000614873601583615147565b915061487e826156b2565b602082019050919050565b6000614896603283615147565b91506148a1826156db565b604082019050919050565b60006148b9601283615147565b91506148c48261572a565b602082019050919050565b60006148dc601583615147565b91506148e782615753565b602082019050919050565b60006148ff601a83615147565b915061490a8261577c565b602082019050919050565b6000614922603183615147565b915061492d826157a5565b604082019050919050565b6000614945601183615147565b9150614950826157f4565b602082019050919050565b6000614968601683615147565b91506149738261581d565b602082019050919050565b600061498b602483615147565b915061499682615846565b604082019050919050565b60006149ae602983615147565b91506149b982615895565b604082019050919050565b60006149d1602583615147565b91506149dc826158e4565b604082019050919050565b60006149f4603383615147565b91506149ff82615933565b604082019050919050565b6000614a17602483615147565b9150614a2282615982565b604082019050919050565b6000614a3a602883615147565b9150614a45826159d1565b604082019050919050565b6000614a5d602e83615147565b9150614a6882615a20565b604082019050919050565b6000614a80602983615147565b9150614a8b82615a6f565b604082019050919050565b6000614aa3601583615147565b9150614aae82615abe565b602082019050919050565b6000606083016000830151614ad16000860182614584565b5060208301518482036020860152614ae982826146f2565b9150506040830151614afe604086018261468c565b508091505092915050565b600060e083016000830151614b2160008601826146d4565b506020830151614b346020860182614ba5565b506040830151614b476040860182614ba5565b506060830151614b5a6060860182614ba5565b506080830151614b6d6080860182614ba5565b5060a083015184820360a0860152614b858282614617565b91505060c0830151614b9a60c0860182614ba5565b508091505092915050565b614bae816152be565b82525050565b614bbd816152be565b82525050565b6000614bcf82846145a2565b60148201915081905092915050565b6000602082019050614bf36000830184614593565b92915050565b60006020820190508181036000830152614c1381846145b9565b905092915050565b60006020820190508181036000830152614c35818461469b565b905092915050565b600060c082019050614c5260008301896146e3565b614c5f6020830188614bb4565b614c6c6040830187614bb4565b614c796060830186614bb4565b614c866080830185614bb4565b614c9360a0830184614bb4565b979650505050505050565b60006020820190508181036000830152614cb78161472b565b9050919050565b60006020820190508181036000830152614cd78161474e565b9050919050565b60006020820190508181036000830152614cf781614771565b9050919050565b60006020820190508181036000830152614d1781614794565b9050919050565b60006020820190508181036000830152614d37816147b7565b9050919050565b60006020820190508181036000830152614d57816147da565b9050919050565b60006020820190508181036000830152614d77816147fd565b9050919050565b60006020820190508181036000830152614d9781614820565b9050919050565b60006020820190508181036000830152614db781614843565b9050919050565b60006020820190508181036000830152614dd781614866565b9050919050565b60006020820190508181036000830152614df781614889565b9050919050565b60006020820190508181036000830152614e17816148ac565b9050919050565b60006020820190508181036000830152614e37816148cf565b9050919050565b60006020820190508181036000830152614e57816148f2565b9050919050565b60006020820190508181036000830152614e7781614915565b9050919050565b60006020820190508181036000830152614e9781614938565b9050919050565b60006020820190508181036000830152614eb78161495b565b9050919050565b60006020820190508181036000830152614ed78161497e565b9050919050565b60006020820190508181036000830152614ef7816149a1565b9050919050565b60006020820190508181036000830152614f17816149c4565b9050919050565b60006020820190508181036000830152614f37816149e7565b9050919050565b60006020820190508181036000830152614f5781614a0a565b9050919050565b60006020820190508181036000830152614f7781614a2d565b9050919050565b60006020820190508181036000830152614f9781614a50565b9050919050565b60006020820190508181036000830152614fb781614a73565b9050919050565b60006020820190508181036000830152614fd781614a96565b9050919050565b60006020820190508181036000830152614ff88184614b09565b905092915050565b60006020820190506150156000830184614bb4565b92915050565b6000615025615036565b9050615031828261534e565b919050565b6000604051905090565b600067ffffffffffffffff82111561505b5761505a6154a8565b5b602082029050602081019050919050565b600067ffffffffffffffff821115615087576150866154a8565b5b615090826154d7565b9050602081019050919050565b6000819050602082019050919050565b6000819050602082019050919050565b600081519050919050565b600081519050919050565b600081519050919050565b600081519050919050565b6000602082019050919050565b6000602082019050919050565b600082825260208201905092915050565b600082825260208201905092915050565b600082825260208201905092915050565b600082825260208201905092915050565b600082825260208201905092915050565b6000615163826152be565b915061516e836152be565b9250827fffffffffffffffffffffffffffffffffffffffffffffffffffffffffffffffff038211156151a3576151a26153ec565b5b828201905092915050565b60006151b9826152be565b91506151c4836152be565b9250826151d4576151d361541b565b5b828204905092915050565b60006151ea826152be565b91506151f5836152be565b9250817fffffffffffffffffffffffffffffffffffffffffffffffffffffffffffffffff048311821515161561522e5761522d6153ec565b5b828202905092915050565b6000615244826152be565b915061524f836152be565b925082821015615262576152616153ec565b5b828203905092915050565b60006152788261529e565b9050919050565b60008115159050919050565b600081905061529982615ae7565b919050565b600073ffffffffffffffffffffffffffffffffffffffff82169050919050565b6000819050919050565b60006152d38261528b565b9050919050565b82818337600083830152505050565b60005b838110156153075780820151818401526020810190506152ec565b83811115615316576000848401525b50505050565b6000600282049050600182168061533457607f821691505b6020821081141561534857615347615479565b5b50919050565b615357826154d7565b810181811067ffffffffffffffff82111715615376576153756154a8565b5b80604052505050565b600061538a826152be565b91507fffffffffffffffffffffffffffffffffffffffffffffffffffffffffffffffff8214156153bd576153bc6153ec565b5b600182019050919050565b60006153d3826153da565b9050919050565b60006153e5826154e8565b9050919050565b7f4e487b7100000000000000000000000000000000000000000000000000000000600052601160045260246000fd5b7f4e487b7100000000000000000000000000000000000000000000000000000000600052601260045260246000fd5b7f4e487b7100000000000000000000000000000000000000000000000000000000600052602160045260246000fd5b7f4e487b7100000000000000000000000000000000000000000000000000000000600052602260045260246000fd5b7f4e487b7100000000000000000000000000000000000000000000000000000000600052604160045260246000fd5b6000601f19601f8301169050919050565b60008160601b9050919050565b7f496e76616c696420636f6d6d697373696f6e0000000000000000000000000000600082015250565b7f496e76616c696420677261636520706572696f64000000000000000000000000600082015250565b7f4e616d652063616e6e6f7420626520656d707479000000000000000000000000600082015250565b7f596f752063616e6e6f742061646420686569727320746f207468697320706c6160008201527f6e00000000000000000000000000000000000000000000000000000000000000602082015250565b7f596f75206861766520616c72656164792077697468647261776e000000000000600082015250565b7f416d6f756e74206d7573742062652067726561746572207468616e207a65726f600082015250565b7f546865726520617265206e6f7420666f756e647320746f207472616e73666572600082015250565b7f596f752063616e6e6f742077697468647261772066726f6d207468697320706c60008201527f616e000000000000000000000000000000000000000000000000000000000000602082015250565b7f596f752063616e6e6f74206372656174652061206e657720706c616e00000000600082015250565b7f596f7520617265206e6f7420746865206f776e65720000000000000000000000600082015250565b7f4d696d696e756d206461797320746f207769746864726177206d75737420626560008201527f2067726561746572207468616e207a65726f0000000000000000000000000000602082015250565b7f596f7520617265206e6f74206120686569720000000000000000000000000000600082015250565b7f596f757220706c616e2068617320657870697265640000000000000000000000600082015250565b7f596f7520617265206e6f742074686520706c616e206f776e6572000000000000600082015250565b7f596f752063616e6e6f7420637265617465206120626173696320706c616e207760008201527f6974682070726f6f66206f66206c696665000000000000000000000000000000602082015250565b7f496e76616c696420706c616e2074797065000000000000000000000000000000600082015250565b7f596f7520646f206e6f742068617665206120706c616e00000000000000000000600082015250565b7f596f752063616e6e6f742061646420746f20796f757273656c6620617320612060008201527f6865697200000000000000000000000000000000000000000000000000000000602082015250565b7f596f75206861766520746f207761697420756e74696c20796f7572207769746860008201527f6472617720646174650000000000000000000000000000000000000000000000602082015250565b7f596f757220706c616e20646f6573206e6f7420686176652070726f6f66206f6660008201527f206c696665000000000000000000000000000000000000000000000000000000602082015250565b7f596f752063616e6e6f742063726561746520616e20696e6865726974616e636560008201527f20706c616e20776974686f757420686569727300000000000000000000000000602082015250565b7f596f752063616e6e6f742072656d6f766520686569727320746f20746869732060008201527f706c616e00000000000000000000000000000000000000000000000000000000602082015250565b7f596f75206861766520746f207761697420756e74696c20796f7572206772616360008201527f6520706572696f64000000000000000000000000000000000000000000000000602082015250565b7f596f75206861766520746f207761697420756e74696c20796f75722070726f6f60008201527f66206f66206c6966652064617465000000000000000000000000000000000000602082015250565b7f596f752063616e6e6f7420637265617465206120626173696320706c616e207760008201527f6974682068656972730000000000000000000000000000000000000000000000602082015250565b7f496e76616c696420776974686472617720646174650000000000000000000000600082015250565b60038110615af857615af761544a565b5b50565b615b048161526d565b8114615b0f57600080fd5b50565b60038110615b1f57600080fd5b50565b615b2b816152be565b8114615b3657600080fd5b5056fea264697066735822122036b0fc95517a120e811156dc4a9e34de719c74bd82666e3c47eb110d2a26080564736f6c63430008040033",
  "linkReferences": {},
  "deployedLinkReferences": {}
}