{
  "_format": "hh-sol-artifact-1",
  "contractName": "CryptoRetirementPlan",
  "sourceName": "src/solidity/contracts/CryptoRetirementPlan.sol",
  "abi": [
    {
      "inputs": [
        {
          "internalType": "uint256",
          "name": "_commissionBasicPlan",
          "type": "uint256"
        },
        {
          "internalType": "uint256",
          "name": "_commissionInheritancePlan",
          "type": "uint256"
        },
        {
          "internalType": "uint256",
          "name": "_commissionFlexiblePlan",
          "type": "uint256"
        },
        {
          "internalType": "uint32",
          "name": "_minimumDaysDurationOfPlan",
          "type": "uint32"
        },
        {
          "internalType": "uint16",
          "name": "_gracePeriodInDays",
          "type": "uint16"
        }
      ],
      "stateMutability": "nonpayable",
      "type": "constructor"
    },
    {
      "inputs": [],
      "name": "addDeposit",
      "outputs": [],
      "stateMutability": "payable",
      "type": "function"
    },
    {
      "inputs": [
        {
          "components": [
            {
              "internalType": "address",
              "name": "heirAddress",
              "type": "address"
            },
            {
              "internalType": "string",
              "name": "name",
              "type": "string"
            }
          ],
          "internalType": "struct CryptoRetirementPlan.HeirParameter[]",
          "name": "heir",
          "type": "tuple[]"
        }
      ],
      "name": "addHeirs",
      "outputs": [],
      "stateMutability": "nonpayable",
      "type": "function"
    },
    {
      "inputs": [],
      "name": "commissionBasicPlan",
      "outputs": [
        {
          "internalType": "uint256",
          "name": "",
          "type": "uint256"
        }
      ],
      "stateMutability": "view",
      "type": "function"
    },
    {
      "inputs": [],
      "name": "commissionFlexiblePlan",
      "outputs": [
        {
          "internalType": "uint256",
          "name": "",
          "type": "uint256"
        }
      ],
      "stateMutability": "view",
      "type": "function"
    },
    {
      "inputs": [],
      "name": "commissionInheritancePlan",
      "outputs": [
        {
          "internalType": "uint256",
          "name": "",
          "type": "uint256"
        }
      ],
      "stateMutability": "view",
      "type": "function"
    },
    {
      "inputs": [],
      "name": "contractTotalCommissions",
      "outputs": [
        {
          "internalType": "uint256",
          "name": "",
          "type": "uint256"
        }
      ],
      "stateMutability": "view",
      "type": "function"
    },
    {
      "inputs": [
        {
          "components": [
            {
              "internalType": "enum CryptoRetirementPlan.PlanType",
              "name": "planType",
              "type": "uint8"
            },
            {
              "internalType": "uint256",
              "name": "dateAvailableToWithdraw",
              "type": "uint256"
            },
            {
              "components": [
                {
                  "internalType": "address",
                  "name": "heirAddress",
                  "type": "address"
                },
                {
                  "internalType": "string",
                  "name": "name",
                  "type": "string"
                }
              ],
              "internalType": "struct CryptoRetirementPlan.HeirParameter[]",
              "name": "heirs",
              "type": "tuple[]"
            },
            {
              "internalType": "uint32",
              "name": "totalDaysToProofOfLife",
              "type": "uint32"
            }
          ],
          "internalType": "struct CryptoRetirementPlan.PlanParameter",
          "name": "_plan",
          "type": "tuple"
        }
      ],
      "name": "createPlan",
      "outputs": [],
      "stateMutability": "payable",
      "type": "function"
    },
    {
      "inputs": [
        {
          "internalType": "enum CryptoRetirementPlan.PlanType",
          "name": "planType",
          "type": "uint8"
        }
      ],
      "name": "getCommission",
      "outputs": [
        {
          "internalType": "uint256",
          "name": "",
          "type": "uint256"
        }
      ],
      "stateMutability": "view",
      "type": "function"
    },
    {
      "inputs": [
        {
          "internalType": "address",
          "name": "heir",
          "type": "address"
        }
      ],
      "name": "getOwnersFromHeir",
      "outputs": [
        {
          "internalType": "address[]",
          "name": "",
          "type": "address[]"
        }
      ],
      "stateMutability": "view",
      "type": "function"
    },
    {
      "inputs": [
        {
          "internalType": "address",
          "name": "owner",
          "type": "address"
        }
      ],
      "name": "getPlanDetail",
      "outputs": [
        {
          "components": [
            {
              "internalType": "enum CryptoRetirementPlan.PlanType",
              "name": "planType",
              "type": "uint8"
            },
            {
              "internalType": "uint256",
              "name": "amount",
              "type": "uint256"
            },
            {
              "internalType": "uint256",
              "name": "dateAvailableToWithdraw",
              "type": "uint256"
            },
            {
              "internalType": "uint256",
              "name": "nextDateOfProofOfLife",
              "type": "uint256"
            },
            {
              "internalType": "uint256",
              "name": "commission",
              "type": "uint256"
            },
            {
              "components": [
                {
                  "internalType": "address",
                  "name": "heirAddress",
                  "type": "address"
                },
                {
                  "internalType": "string",
                  "name": "name",
                  "type": "string"
                },
                {
                  "internalType": "bool",
                  "name": "hasWithdrawn",
                  "type": "bool"
                }
              ],
              "internalType": "struct CryptoRetirementPlan.Heir[]",
              "name": "heirs",
              "type": "tuple[]"
            },
            {
              "internalType": "uint32",
              "name": "totalDaysToProofOfLife",
              "type": "uint32"
            }
          ],
          "internalType": "struct CryptoRetirementPlan.Plan",
          "name": "",
          "type": "tuple"
        }
      ],
      "stateMutability": "view",
      "type": "function"
    },
    {
      "inputs": [],
      "name": "giveProofOfLife",
      "outputs": [],
      "stateMutability": "nonpayable",
      "type": "function"
    },
    {
      "inputs": [],
      "name": "gracePeriodInDays",
      "outputs": [
        {
          "internalType": "uint16",
          "name": "",
          "type": "uint16"
        }
      ],
      "stateMutability": "view",
      "type": "function"
    },
    {
      "inputs": [
        {
          "internalType": "address",
          "name": "",
          "type": "address"
        },
        {
          "internalType": "uint256",
          "name": "",
          "type": "uint256"
        }
      ],
      "name": "heirsToOwners",
      "outputs": [
        {
          "internalType": "address",
          "name": "",
          "type": "address"
        }
      ],
      "stateMutability": "view",
      "type": "function"
    },
    {
      "inputs": [],
      "name": "minimumDaysDurationOfPlan",
      "outputs": [
        {
          "internalType": "uint32",
          "name": "",
          "type": "uint32"
        }
      ],
      "stateMutability": "view",
      "type": "function"
    },
    {
      "inputs": [
        {
          "internalType": "address",
          "name": "",
          "type": "address"
        }
      ],
      "name": "plans",
      "outputs": [
        {
          "internalType": "enum CryptoRetirementPlan.PlanType",
          "name": "planType",
          "type": "uint8"
        },
        {
          "internalType": "uint256",
          "name": "amount",
          "type": "uint256"
        },
        {
          "internalType": "uint256",
          "name": "dateAvailableToWithdraw",
          "type": "uint256"
        },
        {
          "internalType": "uint256",
          "name": "nextDateOfProofOfLife",
          "type": "uint256"
        },
        {
          "internalType": "uint256",
          "name": "commission",
          "type": "uint256"
        },
        {
          "internalType": "uint32",
          "name": "totalDaysToProofOfLife",
          "type": "uint32"
        }
      ],
      "stateMutability": "view",
      "type": "function"
    },
    {
      "inputs": [
        {
          "internalType": "address",
          "name": "heirAddress",
          "type": "address"
        }
      ],
      "name": "removeHeir",
      "outputs": [],
      "stateMutability": "nonpayable",
      "type": "function"
    },
    {
      "inputs": [
        {
          "internalType": "uint16",
          "name": "_gracePeriodInDays",
          "type": "uint16"
        }
      ],
      "name": "setGracePeriodInDays",
      "outputs": [],
      "stateMutability": "nonpayable",
      "type": "function"
    },
    {
      "inputs": [
        {
          "internalType": "uint32",
          "name": "_minimumDaysDurationOfPlan",
          "type": "uint32"
        }
      ],
      "name": "setMinimumDaysDurationOfPlan",
      "outputs": [],
      "stateMutability": "nonpayable",
      "type": "function"
    },
    {
      "inputs": [
        {
          "internalType": "address",
          "name": "a",
          "type": "address"
        }
      ],
      "name": "toBytes",
      "outputs": [
        {
          "internalType": "bytes",
          "name": "",
          "type": "bytes"
        }
      ],
      "stateMutability": "pure",
      "type": "function"
    },
    {
      "inputs": [
        {
          "internalType": "uint256",
          "name": "_basicCommission",
          "type": "uint256"
        },
        {
          "internalType": "uint256",
          "name": "_inheritanceCommission",
          "type": "uint256"
        },
        {
          "internalType": "uint256",
          "name": "_flexibleComission",
          "type": "uint256"
        }
      ],
      "name": "updateCommissions",
      "outputs": [],
      "stateMutability": "nonpayable",
      "type": "function"
    },
    {
      "inputs": [],
      "name": "withdrawCapitalContractOwner",
      "outputs": [],
      "stateMutability": "nonpayable",
      "type": "function"
    },
    {
      "inputs": [
        {
          "internalType": "address",
          "name": "owner",
          "type": "address"
        }
      ],
      "name": "withdrawCapitalHeir",
      "outputs": [],
      "stateMutability": "nonpayable",
      "type": "function"
    },
    {
      "inputs": [],
      "name": "withdrawCapitalOwner",
      "outputs": [],
      "stateMutability": "nonpayable",
      "type": "function"
    }
  ],
  "bytecode": "0x60806040523480156200001157600080fd5b50604051620060473803806200604783398181016040528101906200003791906200011a565b336000806101000a81548173ffffffffffffffffffffffffffffffffffffffff021916908373ffffffffffffffffffffffffffffffffffffffff16021790555084600481905550836005819055508260068190555081600760006101000a81548163ffffffff021916908363ffffffff16021790555080600760046101000a81548161ffff021916908361ffff160217905550505050505062000212565b600081519050620000e681620001c4565b92915050565b600081519050620000fd81620001de565b92915050565b6000815190506200011481620001f8565b92915050565b600080600080600060a086880312156200013357600080fd5b60006200014388828901620000ec565b95505060206200015688828901620000ec565b94505060406200016988828901620000ec565b93505060606200017c8882890162000103565b92505060806200018f88828901620000d5565b9150509295509295909350565b600061ffff82169050919050565b6000819050919050565b600063ffffffff82169050919050565b620001cf816200019c565b8114620001db57600080fd5b50565b620001e981620001aa565b8114620001f557600080fd5b50565b6200020381620001b4565b81146200020f57600080fd5b50565b615e2580620002226000396000f3fe6080604052600436106101405760003560e01c80638bc19c51116100b6578063c872bde71161006f578063c872bde714610421578063dd120bb91461044a578063e60ee70f14610461578063eb00ca2e1461048c578063ebb9d2e3146104c9578063f22cdc94146104f257610140565b80638bc19c51146103235780638d98d0f51461036057806392dd511c146103895780639f88b1a1146103b4578063b9d3c3ce146103df578063c18365671461040a57610140565b80634a58db19116101085780634a58db19146102095780635220d8d414610213578063593b79fe1461023c5780636f536b3414610279578063766e27cb146102a457806386d86d84146102e157610140565b80631ff80e2814610145578063385833151461018257806338aa8812146101995780633cab6ba6146101c457806346a8d33a146101ed575b600080fd5b34801561015157600080fd5b5061016c600480360381019061016791906145dc565b61051b565b60405161017991906151d7565b60405180910390f35b34801561018e57600080fd5b5061019761062d565b005b3480156101a557600080fd5b506101ae6109ac565b6040516101bb91906151d7565b60405180910390f35b3480156101d057600080fd5b506101eb60048036038101906101e69190614646565b6109b2565b005b61020760048036038101906102029190614605565b610ab8565b005b610211611689565b005b34801561021f57600080fd5b5061023a600480360381019061023591906146be565b611830565b005b34801561024857600080fd5b50610263600480360381019061025e9190614536565b61192b565b6040516102709190614dd7565b60405180910390f35b34801561028557600080fd5b5061028e611954565b60405161029b91906151d7565b60405180910390f35b3480156102b057600080fd5b506102cb60048036038101906102c69190614536565b61195a565b6040516102d89190614db5565b60405180910390f35b3480156102ed57600080fd5b5061030860048036038101906103039190614536565b611a27565b60405161031a96959493929190614df9565b60405180910390f35b34801561032f57600080fd5b5061034a60048036038101906103459190614536565b611a80565b604051610357919061519a565b60405180910390f35b34801561036c57600080fd5b5061038760048036038101906103829190614536565b611d10565b005b34801561039557600080fd5b5061039e612969565b6040516103ab91906151d7565b60405180910390f35b3480156103c057600080fd5b506103c961296f565b6040516103d691906151bc565b60405180910390f35b3480156103eb57600080fd5b506103f4612983565b60405161040191906151d7565b60405180910390f35b34801561041657600080fd5b5061041f612989565b005b34801561042d57600080fd5b506104486004803603810190610443919061466f565b612ac7565b005b34801561045657600080fd5b5061045f612c62565b005b34801561046d57600080fd5b5061047661302f565b60405161048391906151f2565b60405180910390f35b34801561049857600080fd5b506104b360048036038101906104ae919061455f565b613045565b6040516104c09190614d9a565b60405180910390f35b3480156104d557600080fd5b506104f060048036038101906104eb9190614536565b613093565b005b3480156104fe57600080fd5b506105196004803603810190610514919061459b565b6138f6565b005b6000806002811115610556577f4e487b7100000000000000000000000000000000000000000000000000000000600052602160045260246000fd5b82600281111561058f577f4e487b7100000000000000000000000000000000000000000000000000000000600052602160045260246000fd5b141561059f576004549050610628565b600160028111156105d9577f4e487b7100000000000000000000000000000000000000000000000000000000600052602160045260246000fd5b826002811115610612577f4e487b7100000000000000000000000000000000000000000000000000000000600052602160045260246000fd5b1415610622576005549050610628565b60065490505b919050565b6000600160003373ffffffffffffffffffffffffffffffffffffffff1673ffffffffffffffffffffffffffffffffffffffff16815260200190815260200160002060020154116106b2576040517f08c379a00000000000000000000000000000000000000000000000000000000081526004016106a990614ffa565b60405180910390fd5b6000600160003373ffffffffffffffffffffffffffffffffffffffff1673ffffffffffffffffffffffffffffffffffffffff1681526020019081526020016000206001015411610737576040517f08c379a000000000000000000000000000000000000000000000000000000000815260040161072e9061505a565b60405180910390fd5b42600160003373ffffffffffffffffffffffffffffffffffffffff1673ffffffffffffffffffffffffffffffffffffffff16815260200190815260200160002060020154106107bb576040517f08c379a00000000000000000000000000000000000000000000000000000000081526004016107b29061509a565b60405180910390fd5b60006064600160003373ffffffffffffffffffffffffffffffffffffffff1673ffffffffffffffffffffffffffffffffffffffff16815260200190815260200160002060040154600160003373ffffffffffffffffffffffffffffffffffffffff1673ffffffffffffffffffffffffffffffffffffffff1681526020019081526020016000206001015461084f919061540e565b61085991906153a0565b9050600081600160003373ffffffffffffffffffffffffffffffffffffffff1673ffffffffffffffffffffffffffffffffffffffff168152602001908152602001600020600101546108ab91906154a6565b9050600160003373ffffffffffffffffffffffffffffffffffffffff1673ffffffffffffffffffffffffffffffffffffffff16815260200190815260200160002060010154600160003373ffffffffffffffffffffffffffffffffffffffff1673ffffffffffffffffffffffffffffffffffffffff168152602001908152602001600020600101600082825461094191906154a6565b92505081905550816002600082825461095a919061534a565b925050819055503373ffffffffffffffffffffffffffffffffffffffff166108fc829081150290604051600060405180830381858888f193505050501580156109a7573d6000803e3d6000fd5b505050565b60045481565b60008054906101000a900473ffffffffffffffffffffffffffffffffffffffff1673ffffffffffffffffffffffffffffffffffffffff163373ffffffffffffffffffffffffffffffffffffffff1614610a40576040517f08c379a0000000000000000000000000000000000000000000000000000000008152600401610a3790614f7a565b60405180910390fd5b605a8161ffff16118015610a5957506102d08161ffff16105b610a98576040517f08c379a0000000000000000000000000000000000000000000000000000000008152600401610a8f90614e7a565b60405180910390fd5b80600760046101000a81548161ffff021916908361ffff16021790555050565b6000600160003373ffffffffffffffffffffffffffffffffffffffff1673ffffffffffffffffffffffffffffffffffffffff1681526020019081526020016000206002015414610b3d576040517f08c379a0000000000000000000000000000000000000000000000000000000008152600401610b3490614f5a565b60405180910390fd5b60003411610b80576040517f08c379a0000000000000000000000000000000000000000000000000000000008152600401610b7790614efa565b60405180910390fd5b60006002811115610bba577f4e487b7100000000000000000000000000000000000000000000000000000000600052602160045260246000fd5b81600001516002811115610bf7577f4e487b7100000000000000000000000000000000000000000000000000000000600052602160045260246000fd5b1480610c77575060016002811115610c38577f4e487b7100000000000000000000000000000000000000000000000000000000600052602160045260246000fd5b81600001516002811115610c75577f4e487b7100000000000000000000000000000000000000000000000000000000600052602160045260246000fd5b145b80610cf55750600280811115610cb6577f4e487b7100000000000000000000000000000000000000000000000000000000600052602160045260246000fd5b81600001516002811115610cf3577f4e487b7100000000000000000000000000000000000000000000000000000000600052602160045260246000fd5b145b610d34576040517f08c379a0000000000000000000000000000000000000000000000000000000008152600401610d2b9061503a565b60405180910390fd5b62015180600760009054906101000a900463ffffffff16610d559190615468565b63ffffffff1642610d66919061534a565b816020015111610dab576040517f08c379a0000000000000000000000000000000000000000000000000000000008152600401610da29061517a565b60405180910390fd5b60006002811115610de5577f4e487b7100000000000000000000000000000000000000000000000000000000600052602160045260246000fd5b81600001516002811115610e22577f4e487b7100000000000000000000000000000000000000000000000000000000600052602160045260246000fd5b1415610ec257600081604001515114610e70576040517f08c379a0000000000000000000000000000000000000000000000000000000008152600401610e679061515a565b60405180910390fd5b6000816060015163ffffffff1614610ebd576040517f08c379a0000000000000000000000000000000000000000000000000000000008152600401610eb49061501a565b60405180910390fd5b611007565b60016002811115610efc577f4e487b7100000000000000000000000000000000000000000000000000000000600052602160045260246000fd5b81600001516002811115610f39577f4e487b7100000000000000000000000000000000000000000000000000000000600052602160045260246000fd5b1480610fb85750600280811115610f79577f4e487b7100000000000000000000000000000000000000000000000000000000600052602160045260246000fd5b81600001516002811115610fb6577f4e487b7100000000000000000000000000000000000000000000000000000000600052602160045260246000fd5b145b1561100657600081604001515111611005576040517f08c379a0000000000000000000000000000000000000000000000000000000008152600401610ffc906150da565b60405180910390fd5b5b5b6000600160003373ffffffffffffffffffffffffffffffffffffffff1673ffffffffffffffffffffffffffffffffffffffff168152602001908152602001600020905081600001518160000160006101000a81548160ff0219169083600281111561109b577f4e487b7100000000000000000000000000000000000000000000000000000000600052602160045260246000fd5b0217905550348160010181905550816020015181600201819055506002808111156110ef577f4e487b7100000000000000000000000000000000000000000000000000000000600052602160045260246000fd5b8260000151600281111561112c577f4e487b7100000000000000000000000000000000000000000000000000000000600052602160045260246000fd5b14156111865781606001518160060160006101000a81548163ffffffff021916908363ffffffff16021790555062015180826060015161116c9190615468565b63ffffffff164261117d919061534a565b81600301819055505b600060028111156111c0577f4e487b7100000000000000000000000000000000000000000000000000000000600052602160045260246000fd5b826000015160028111156111fd577f4e487b7100000000000000000000000000000000000000000000000000000000600052602160045260246000fd5b14156112135760045481600401819055506112ad565b6001600281111561124d577f4e487b7100000000000000000000000000000000000000000000000000000000600052602160045260246000fd5b8260000151600281111561128a577f4e487b7100000000000000000000000000000000000000000000000000000000600052602160045260246000fd5b14156112a05760055481600401819055506112ac565b60065481600401819055505b5b60005b8260400151518160ff16101561168457600083604001518260ff1681518110611302577f4e487b7100000000000000000000000000000000000000000000000000000000600052603260045260246000fd5b602002602001015160200151511161134f576040517f08c379a000000000000000000000000000000000000000000000000000000000815260040161134690614e9a565b60405180910390fd5b3373ffffffffffffffffffffffffffffffffffffffff1683604001518260ff16815181106113a6577f4e487b7100000000000000000000000000000000000000000000000000000000600052603260045260246000fd5b60200260200101516000015173ffffffffffffffffffffffffffffffffffffffff161415611409576040517f08c379a00000000000000000000000000000000000000000000000000000000081526004016114009061507a565b60405180910390fd5b6003600084604001518360ff168151811061144d577f4e487b7100000000000000000000000000000000000000000000000000000000600052603260045260246000fd5b60200260200101516000015173ffffffffffffffffffffffffffffffffffffffff1673ffffffffffffffffffffffffffffffffffffffff168152602001908152602001600020339080600181540180825580915050600190039060005260206000200160009091909190916101000a81548173ffffffffffffffffffffffffffffffffffffffff021916908373ffffffffffffffffffffffffffffffffffffffff16021790555081600501604051806060016040528085604001518460ff1681518110611543577f4e487b7100000000000000000000000000000000000000000000000000000000600052603260045260246000fd5b60200260200101516000015173ffffffffffffffffffffffffffffffffffffffff16815260200185604001518460ff16815181106115aa577f4e487b7100000000000000000000000000000000000000000000000000000000600052603260045260246000fd5b602002602001015160200151815260200160001515815250908060018154018082558091505060019003906000526020600020906003020160009091909190915060008201518160000160006101000a81548173ffffffffffffffffffffffffffffffffffffffff021916908373ffffffffffffffffffffffffffffffffffffffff160217905550602082015181600101908051906020019061164e929190614050565b5060408201518160020160006101000a81548160ff0219169083151502179055505050808061167c90615626565b9150506112b0565b505050565b6000600160003373ffffffffffffffffffffffffffffffffffffffff1673ffffffffffffffffffffffffffffffffffffffff168152602001908152602001600020600201541161170e576040517f08c379a000000000000000000000000000000000000000000000000000000000815260040161170590614ffa565b60405180910390fd5b60003411611751576040517f08c379a000000000000000000000000000000000000000000000000000000000815260040161174890614efa565b60405180910390fd5b42600160003373ffffffffffffffffffffffffffffffffffffffff1673ffffffffffffffffffffffffffffffffffffffff16815260200190815260200160002060020154116117d5576040517f08c379a00000000000000000000000000000000000000000000000000000000081526004016117cc90614fda565b60405180910390fd5b34600160003373ffffffffffffffffffffffffffffffffffffffff1673ffffffffffffffffffffffffffffffffffffffff1681526020019081526020016000206001016000828254611827919061534a565b92505081905550565b60008054906101000a900473ffffffffffffffffffffffffffffffffffffffff1673ffffffffffffffffffffffffffffffffffffffff163373ffffffffffffffffffffffffffffffffffffffff16146118be576040517f08c379a00000000000000000000000000000000000000000000000000000000081526004016118b590614f7a565b60405180910390fd5b60008163ffffffff1611611907576040517f08c379a00000000000000000000000000000000000000000000000000000000081526004016118fe90614f9a565b60405180910390fd5b80600760006101000a81548163ffffffff021916908363ffffffff16021790555050565b60608160405160200161193e9190614d7f565b6040516020818303038152906040529050919050565b60055481565b6060600360008373ffffffffffffffffffffffffffffffffffffffff1673ffffffffffffffffffffffffffffffffffffffff168152602001908152602001600020805480602002602001604051908101604052809291908181526020018280548015611a1b57602002820191906000526020600020905b8160009054906101000a900473ffffffffffffffffffffffffffffffffffffffff1673ffffffffffffffffffffffffffffffffffffffff16815260200190600101908083116119d1575b50505050509050919050565b60016020528060005260406000206000915090508060000160009054906101000a900460ff16908060010154908060020154908060030154908060040154908060060160009054906101000a900463ffffffff16905086565b611a886140d6565b600160008373ffffffffffffffffffffffffffffffffffffffff1673ffffffffffffffffffffffffffffffffffffffff1681526020019081526020016000206040518060e00160405290816000820160009054906101000a900460ff166002811115611b1d577f4e487b7100000000000000000000000000000000000000000000000000000000600052602160045260246000fd5b6002811115611b55577f4e487b7100000000000000000000000000000000000000000000000000000000600052602160045260246000fd5b81526020016001820154815260200160028201548152602001600382015481526020016004820154815260200160058201805480602002602001604051908101604052809291908181526020016000905b82821015611cdb57838290600052602060002090600302016040518060600160405290816000820160009054906101000a900473ffffffffffffffffffffffffffffffffffffffff1673ffffffffffffffffffffffffffffffffffffffff1673ffffffffffffffffffffffffffffffffffffffff168152602001600182018054611c2f906155c3565b80601f0160208091040260200160405190810160405280929190818152602001828054611c5b906155c3565b8015611ca85780601f10611c7d57610100808354040283529160200191611ca8565b820191906000526020600020905b815481529060010190602001808311611c8b57829003601f168201915b505050505081526020016002820160009054906101000a900460ff16151515158152505081526020019060010190611ba6565b5050505081526020016006820160009054906101000a900463ffffffff1663ffffffff1663ffffffff16815250509050919050565b6000805b600360003373ffffffffffffffffffffffffffffffffffffffff1673ffffffffffffffffffffffffffffffffffffffff168152602001908152602001600020805490508160ff161015611e55576000611e10600360003373ffffffffffffffffffffffffffffffffffffffff1673ffffffffffffffffffffffffffffffffffffffff1681526020019081526020016000208360ff1681548110611de0577f4e487b7100000000000000000000000000000000000000000000000000000000600052603260045260246000fd5b9060005260206000200160009054906101000a900473ffffffffffffffffffffffffffffffffffffffff1661192b565b90506000611e1d8561192b565b9050808051906020012082805190602001201415611e4057600193505050611e55565b50508080611e4d90615626565b915050611d14565b5080611e96576040517f08c379a0000000000000000000000000000000000000000000000000000000008152600401611e8d90614fba565b60405180910390fd5b6000600160008473ffffffffffffffffffffffffffffffffffffffff1673ffffffffffffffffffffffffffffffffffffffff1681526020019081526020016000206001015411611f1b576040517f08c379a0000000000000000000000000000000000000000000000000000000008152600401611f129061505a565b60405180910390fd5b42600160008473ffffffffffffffffffffffffffffffffffffffff1673ffffffffffffffffffffffffffffffffffffffff1681526020019081526020016000206002015410611f9f576040517f08c379a0000000000000000000000000000000000000000000000000000000008152600401611f969061509a565b60405180910390fd5b60006002811115611fd9577f4e487b7100000000000000000000000000000000000000000000000000000000600052602160045260246000fd5b600160008473ffffffffffffffffffffffffffffffffffffffff1673ffffffffffffffffffffffffffffffffffffffff16815260200190815260200160002060000160009054906101000a900460ff166002811115612061577f4e487b7100000000000000000000000000000000000000000000000000000000600052602160045260246000fd5b14806121ac5750600060028111156120a2577f4e487b7100000000000000000000000000000000000000000000000000000000600052602160045260246000fd5b600160008473ffffffffffffffffffffffffffffffffffffffff1673ffffffffffffffffffffffffffffffffffffffff16815260200190815260200160002060000160009054906101000a900460ff16600281111561212a577f4e487b7100000000000000000000000000000000000000000000000000000000600052602160045260246000fd5b141580156121ab57504262015180600760049054906101000a900461ffff1661ffff1661215791906153d1565b62ffffff16600160008573ffffffffffffffffffffffffffffffffffffffff1673ffffffffffffffffffffffffffffffffffffffff168152602001908152602001600020600201546121a9919061534a565b105b5b6121eb576040517f08c379a00000000000000000000000000000000000000000000000000000000081526004016121e29061511a565b60405180910390fd5b60016002811115612225577f4e487b7100000000000000000000000000000000000000000000000000000000600052602160045260246000fd5b600160008473ffffffffffffffffffffffffffffffffffffffff1673ffffffffffffffffffffffffffffffffffffffff16815260200190815260200160002060000160009054906101000a900460ff1660028111156122ad577f4e487b7100000000000000000000000000000000000000000000000000000000600052602160045260246000fd5b148061237757506002808111156122ed577f4e487b7100000000000000000000000000000000000000000000000000000000600052602160045260246000fd5b600160008473ffffffffffffffffffffffffffffffffffffffff1673ffffffffffffffffffffffffffffffffffffffff16815260200190815260200160002060000160009054906101000a900460ff166002811115612375577f4e487b7100000000000000000000000000000000000000000000000000000000600052602160045260246000fd5b145b6123b6576040517f08c379a00000000000000000000000000000000000000000000000000000000081526004016123ad90614f3a565b60405180910390fd5b6000600160008473ffffffffffffffffffffffffffffffffffffffff1673ffffffffffffffffffffffffffffffffffffffff16815260200190815260200160002060050180549050905060005b600160008573ffffffffffffffffffffffffffffffffffffffff1673ffffffffffffffffffffffffffffffffffffffff168152602001908152602001600020600501805490508160ff16101561251757600160008573ffffffffffffffffffffffffffffffffffffffff1673ffffffffffffffffffffffffffffffffffffffff1681526020019081526020016000206005018160ff16815481106124d0577f4e487b7100000000000000000000000000000000000000000000000000000000600052603260045260246000fd5b906000526020600020906003020160020160009054906101000a900460ff16156125045760018261250191906154a6565b91505b808061250f90615626565b915050612403565b5060005b600160008573ffffffffffffffffffffffffffffffffffffffff1673ffffffffffffffffffffffffffffffffffffffff168152602001908152602001600020600501805490508160ff1610156127e7573373ffffffffffffffffffffffffffffffffffffffff16600160008673ffffffffffffffffffffffffffffffffffffffff1673ffffffffffffffffffffffffffffffffffffffff1681526020019081526020016000206005018260ff16815481106125ff577f4e487b7100000000000000000000000000000000000000000000000000000000600052603260045260246000fd5b906000526020600020906003020160000160009054906101000a900473ffffffffffffffffffffffffffffffffffffffff1673ffffffffffffffffffffffffffffffffffffffff1614156127d457600160008573ffffffffffffffffffffffffffffffffffffffff1673ffffffffffffffffffffffffffffffffffffffff1681526020019081526020016000206005018160ff16815481106126ca577f4e487b7100000000000000000000000000000000000000000000000000000000600052603260045260246000fd5b906000526020600020906003020160020160009054906101000a900460ff1615612729576040517f08c379a000000000000000000000000000000000000000000000000000000000815260040161272090614eda565b60405180910390fd5b60018060008673ffffffffffffffffffffffffffffffffffffffff1673ffffffffffffffffffffffffffffffffffffffff1681526020019081526020016000206005018260ff16815481106127a7577f4e487b7100000000000000000000000000000000000000000000000000000000600052603260045260246000fd5b906000526020600020906003020160020160006101000a81548160ff0219169083151502179055506127e7565b80806127df90615626565b91505061251b565b50600081600160008673ffffffffffffffffffffffffffffffffffffffff1673ffffffffffffffffffffffffffffffffffffffff1681526020019081526020016000206001015461283891906153a0565b905060006064600160008773ffffffffffffffffffffffffffffffffffffffff1673ffffffffffffffffffffffffffffffffffffffff168152602001908152602001600020600401548361288c919061540e565b61289691906153a0565b9050600081836128a691906154a6565b905082600160008873ffffffffffffffffffffffffffffffffffffffff1673ffffffffffffffffffffffffffffffffffffffff16815260200190815260200160002060010160008282546128fa91906154a6565b925050819055508160026000828254612913919061534a565b925050819055503373ffffffffffffffffffffffffffffffffffffffff166108fc829081150290604051600060405180830381858888f19350505050158015612960573d6000803e3d6000fd5b50505050505050565b60065481565b600760049054906101000a900461ffff1681565b60025481565b60008054906101000a900473ffffffffffffffffffffffffffffffffffffffff1673ffffffffffffffffffffffffffffffffffffffff163373ffffffffffffffffffffffffffffffffffffffff1614612a17576040517f08c379a0000000000000000000000000000000000000000000000000000000008152600401612a0e90614f7a565b60405180910390fd5b600060025411612a5c576040517f08c379a0000000000000000000000000000000000000000000000000000000008152600401612a5390614f1a565b60405180910390fd5b60008054906101000a900473ffffffffffffffffffffffffffffffffffffffff1673ffffffffffffffffffffffffffffffffffffffff166108fc6002549081150290604051600060405180830381858888f19350505050158015612ac4573d6000803e3d6000fd5b50565b60008054906101000a900473ffffffffffffffffffffffffffffffffffffffff1673ffffffffffffffffffffffffffffffffffffffff163373ffffffffffffffffffffffffffffffffffffffff1614612b55576040517f08c379a0000000000000000000000000000000000000000000000000000000008152600401612b4c90614f7a565b60405180910390fd5b60008310158015612b675750600a8311155b612ba6576040517f08c379a0000000000000000000000000000000000000000000000000000000008152600401612b9d90614e5a565b60405180910390fd5b60008210158015612bb85750600a8211155b612bf7576040517f08c379a0000000000000000000000000000000000000000000000000000000008152600401612bee90614e5a565b60405180910390fd5b60008110158015612c095750600a8111155b612c48576040517f08c379a0000000000000000000000000000000000000000000000000000000008152600401612c3f90614e5a565b60405180910390fd5b826004819055508160058190555080600681905550505050565b6000600160003373ffffffffffffffffffffffffffffffffffffffff1673ffffffffffffffffffffffffffffffffffffffff1681526020019081526020016000206002015411612ce7576040517f08c379a0000000000000000000000000000000000000000000000000000000008152600401612cde90614ffa565b60405180910390fd5b6000600160003373ffffffffffffffffffffffffffffffffffffffff1673ffffffffffffffffffffffffffffffffffffffff1681526020019081526020016000206001015411612d6c576040517f08c379a0000000000000000000000000000000000000000000000000000000008152600401612d639061505a565b60405180910390fd5b42600160003373ffffffffffffffffffffffffffffffffffffffff1673ffffffffffffffffffffffffffffffffffffffff1681526020019081526020016000206002015410612df0576040517f08c379a0000000000000000000000000000000000000000000000000000000008152600401612de79061509a565b60405180910390fd5b600280811115612e29577f4e487b7100000000000000000000000000000000000000000000000000000000600052602160045260246000fd5b600160003373ffffffffffffffffffffffffffffffffffffffff1673ffffffffffffffffffffffffffffffffffffffff16815260200190815260200160002060000160009054906101000a900460ff166002811115612eb1577f4e487b7100000000000000000000000000000000000000000000000000000000600052602160045260246000fd5b14612ef1576040517f08c379a0000000000000000000000000000000000000000000000000000000008152600401612ee8906150ba565b60405180910390fd5b42600160003373ffffffffffffffffffffffffffffffffffffffff1673ffffffffffffffffffffffffffffffffffffffff1681526020019081526020016000206003015410612f75576040517f08c379a0000000000000000000000000000000000000000000000000000000008152600401612f6c9061513a565b60405180910390fd5b62015180600160003373ffffffffffffffffffffffffffffffffffffffff1673ffffffffffffffffffffffffffffffffffffffff16815260200190815260200160002060060160009054906101000a900463ffffffff16612fd69190615468565b63ffffffff1642612fe7919061534a565b600160003373ffffffffffffffffffffffffffffffffffffffff1673ffffffffffffffffffffffffffffffffffffffff16815260200190815260200160002060030181905550565b600760009054906101000a900463ffffffff1681565b6003602052816000526040600020818154811061306157600080fd5b906000526020600020016000915091509054906101000a900473ffffffffffffffffffffffffffffffffffffffff1681565b6000600160003373ffffffffffffffffffffffffffffffffffffffff1673ffffffffffffffffffffffffffffffffffffffff1681526020019081526020016000206002015411613118576040517f08c379a000000000000000000000000000000000000000000000000000000000815260040161310f90614ffa565b60405180910390fd5b6000600160003373ffffffffffffffffffffffffffffffffffffffff1673ffffffffffffffffffffffffffffffffffffffff168152602001908152602001600020600101541161319d576040517f08c379a00000000000000000000000000000000000000000000000000000000081526004016131949061505a565b60405180910390fd5b600160028111156131d7577f4e487b7100000000000000000000000000000000000000000000000000000000600052602160045260246000fd5b600160003373ffffffffffffffffffffffffffffffffffffffff1673ffffffffffffffffffffffffffffffffffffffff16815260200190815260200160002060000160009054906101000a900460ff16600281111561325f577f4e487b7100000000000000000000000000000000000000000000000000000000600052602160045260246000fd5b1480613329575060028081111561329f577f4e487b7100000000000000000000000000000000000000000000000000000000600052602160045260246000fd5b600160003373ffffffffffffffffffffffffffffffffffffffff1673ffffffffffffffffffffffffffffffffffffffff16815260200190815260200160002060000160009054906101000a900460ff166002811115613327577f4e487b7100000000000000000000000000000000000000000000000000000000600052602160045260246000fd5b145b613368576040517f08c379a000000000000000000000000000000000000000000000000000000000815260040161335f906150fa565b60405180910390fd5b42600160003373ffffffffffffffffffffffffffffffffffffffff1673ffffffffffffffffffffffffffffffffffffffff16815260200190815260200160002060020154116133ec576040517f08c379a00000000000000000000000000000000000000000000000000000000081526004016133e390614fda565b60405180910390fd5b60005b600160003373ffffffffffffffffffffffffffffffffffffffff1673ffffffffffffffffffffffffffffffffffffffff168152602001908152602001600020600501805490508160ff16101561382f578173ffffffffffffffffffffffffffffffffffffffff16600160003373ffffffffffffffffffffffffffffffffffffffff1673ffffffffffffffffffffffffffffffffffffffff1681526020019081526020016000206005018260ff16815481106134d3577f4e487b7100000000000000000000000000000000000000000000000000000000600052603260045260246000fd5b906000526020600020906003020160000160009054906101000a900473ffffffffffffffffffffffffffffffffffffffff1673ffffffffffffffffffffffffffffffffffffffff16141561381c57600160003373ffffffffffffffffffffffffffffffffffffffff1673ffffffffffffffffffffffffffffffffffffffff16815260200190815260200160002060050160018060003373ffffffffffffffffffffffffffffffffffffffff1673ffffffffffffffffffffffffffffffffffffffff168152602001908152602001600020600501805490506135b491906154a6565b815481106135eb577f4e487b7100000000000000000000000000000000000000000000000000000000600052603260045260246000fd5b9060005260206000209060030201600160003373ffffffffffffffffffffffffffffffffffffffff1673ffffffffffffffffffffffffffffffffffffffff1681526020019081526020016000206005018260ff1681548110613676577f4e487b7100000000000000000000000000000000000000000000000000000000600052603260045260246000fd5b90600052602060002090600302016000820160009054906101000a900473ffffffffffffffffffffffffffffffffffffffff168160000160006101000a81548173ffffffffffffffffffffffffffffffffffffffff021916908373ffffffffffffffffffffffffffffffffffffffff16021790555060018201816001019080546136ff906155c3565b61370a929190614151565b506002820160009054906101000a900460ff168160020160006101000a81548160ff021916908315150217905550905050600160003373ffffffffffffffffffffffffffffffffffffffff1673ffffffffffffffffffffffffffffffffffffffff1681526020019081526020016000206005018054806137b3577f4e487b7100000000000000000000000000000000000000000000000000000000600052603160045260246000fd5b6001900381819060005260206000209060030201600080820160006101000a81549073ffffffffffffffffffffffffffffffffffffffff02191690556001820160006137ff91906141de565b6002820160006101000a81549060ff02191690555050905561382f565b808061382790615626565b9150506133ef565b50600067ffffffffffffffff811115613871577f4e487b7100000000000000000000000000000000000000000000000000000000600052604160045260246000fd5b60405190808252806020026020018201604052801561389f5781602001602082028036833780820191505090505b50600360008373ffffffffffffffffffffffffffffffffffffffff1673ffffffffffffffffffffffffffffffffffffffff16815260200190815260200160002090805190602001906138f292919061421e565b5050565b6000600160003373ffffffffffffffffffffffffffffffffffffffff1673ffffffffffffffffffffffffffffffffffffffff168152602001908152602001600020600201541161397b576040517f08c379a000000000000000000000000000000000000000000000000000000000815260040161397290614ffa565b60405180910390fd5b6000600160003373ffffffffffffffffffffffffffffffffffffffff1673ffffffffffffffffffffffffffffffffffffffff1681526020019081526020016000206001015411613a00576040517f08c379a00000000000000000000000000000000000000000000000000000000081526004016139f79061505a565b60405180910390fd5b60016002811115613a3a577f4e487b7100000000000000000000000000000000000000000000000000000000600052602160045260246000fd5b600160003373ffffffffffffffffffffffffffffffffffffffff1673ffffffffffffffffffffffffffffffffffffffff16815260200190815260200160002060000160009054906101000a900460ff166002811115613ac2577f4e487b7100000000000000000000000000000000000000000000000000000000600052602160045260246000fd5b1480613b8c5750600280811115613b02577f4e487b7100000000000000000000000000000000000000000000000000000000600052602160045260246000fd5b600160003373ffffffffffffffffffffffffffffffffffffffff1673ffffffffffffffffffffffffffffffffffffffff16815260200190815260200160002060000160009054906101000a900460ff166002811115613b8a577f4e487b7100000000000000000000000000000000000000000000000000000000600052602160045260246000fd5b145b613bcb576040517f08c379a0000000000000000000000000000000000000000000000000000000008152600401613bc290614eba565b60405180910390fd5b42600160003373ffffffffffffffffffffffffffffffffffffffff1673ffffffffffffffffffffffffffffffffffffffff1681526020019081526020016000206002015411613c4f576040517f08c379a0000000000000000000000000000000000000000000000000000000008152600401613c4690614fda565b60405180910390fd5b60005b81518160ff16101561404c576000828260ff1681518110613c9c577f4e487b7100000000000000000000000000000000000000000000000000000000600052603260045260246000fd5b6020026020010151602001515111613ce9576040517f08c379a0000000000000000000000000000000000000000000000000000000008152600401613ce090614e9a565b60405180910390fd5b3373ffffffffffffffffffffffffffffffffffffffff16828260ff1681518110613d3c577f4e487b7100000000000000000000000000000000000000000000000000000000600052603260045260246000fd5b60200260200101516000015173ffffffffffffffffffffffffffffffffffffffff161415613d9f576040517f08c379a0000000000000000000000000000000000000000000000000000000008152600401613d969061507a565b60405180910390fd5b600160003373ffffffffffffffffffffffffffffffffffffffff1673ffffffffffffffffffffffffffffffffffffffff1681526020019081526020016000206005016040518060600160405280848460ff1681518110613e28577f4e487b7100000000000000000000000000000000000000000000000000000000600052603260045260246000fd5b60200260200101516000015173ffffffffffffffffffffffffffffffffffffffff168152602001848460ff1681518110613e8b577f4e487b7100000000000000000000000000000000000000000000000000000000600052603260045260246000fd5b602002602001015160200151815260200160001515815250908060018154018082558091505060019003906000526020600020906003020160009091909190915060008201518160000160006101000a81548173ffffffffffffffffffffffffffffffffffffffff021916908373ffffffffffffffffffffffffffffffffffffffff1602179055506020820151816001019080519060200190613f2f929190614050565b5060408201518160020160006101000a81548160ff021916908315150217905550505060036000838360ff1681518110613f92577f4e487b7100000000000000000000000000000000000000000000000000000000600052603260045260246000fd5b60200260200101516000015173ffffffffffffffffffffffffffffffffffffffff1673ffffffffffffffffffffffffffffffffffffffff168152602001908152602001600020339080600181540180825580915050600190039060005260206000200160009091909190916101000a81548173ffffffffffffffffffffffffffffffffffffffff021916908373ffffffffffffffffffffffffffffffffffffffff160217905550808061404490615626565b915050613c52565b5050565b82805461405c906155c3565b90600052602060002090601f01602090048101928261407e57600085556140c5565b82601f1061409757805160ff19168380011785556140c5565b828001600101855582156140c5579182015b828111156140c45782518255916020019190600101906140a9565b5b5090506140d291906142a8565b5090565b6040518060e001604052806000600281111561411b577f4e487b7100000000000000000000000000000000000000000000000000000000600052602160045260246000fd5b81526020016000815260200160008152602001600081526020016000815260200160608152602001600063ffffffff1681525090565b82805461415d906155c3565b90600052602060002090601f01602090048101928261417f57600085556141cd565b82601f1061419057805485556141cd565b828001600101855582156141cd57600052602060002091601f016020900482015b828111156141cc5782548255916001019190600101906141b1565b5b5090506141da91906142a8565b5090565b5080546141ea906155c3565b6000825580601f106141fc575061421b565b601f01602090049060005260206000209081019061421a91906142a8565b5b50565b828054828255906000526020600020908101928215614297579160200282015b828111156142965782518260006101000a81548173ffffffffffffffffffffffffffffffffffffffff021916908373ffffffffffffffffffffffffffffffffffffffff1602179055509160200191906001019061423e565b5b5090506142a491906142a8565b5090565b5b808211156142c15760008160009055506001016142a9565b5090565b60006142d86142d384615232565b61520d565b905080838252602082019050828560208602820111156142f757600080fd5b60005b8581101561434157813567ffffffffffffffff81111561431957600080fd5b8086016143268982614407565b855260208501945060208401935050506001810190506142fa565b5050509392505050565b600061435e6143598461525e565b61520d565b90508281526020810184848401111561437657600080fd5b614381848285615581565b509392505050565b60008135905061439881615d83565b92915050565b600082601f8301126143af57600080fd5b81356143bf8482602086016142c5565b91505092915050565b6000813590506143d781615d9a565b92915050565b600082601f8301126143ee57600080fd5b81356143fe84826020860161434b565b91505092915050565b60006040828403121561441957600080fd5b614423604061520d565b9050600061443384828501614389565b600083015250602082013567ffffffffffffffff81111561445357600080fd5b61445f848285016143dd565b60208301525092915050565b60006080828403121561447d57600080fd5b614487608061520d565b90506000614497848285016143c8565b60008301525060206144ab8482850161450c565b602083015250604082013567ffffffffffffffff8111156144cb57600080fd5b6144d78482850161439e565b60408301525060606144eb84828501614521565b60608301525092915050565b60008135905061450681615daa565b92915050565b60008135905061451b81615dc1565b92915050565b60008135905061453081615dd8565b92915050565b60006020828403121561454857600080fd5b600061455684828501614389565b91505092915050565b6000806040838503121561457257600080fd5b600061458085828601614389565b92505060206145918582860161450c565b9150509250929050565b6000602082840312156145ad57600080fd5b600082013567ffffffffffffffff8111156145c757600080fd5b6145d38482850161439e565b91505092915050565b6000602082840312156145ee57600080fd5b60006145fc848285016143c8565b91505092915050565b60006020828403121561461757600080fd5b600082013567ffffffffffffffff81111561463157600080fd5b61463d8482850161446b565b91505092915050565b60006020828403121561465857600080fd5b6000614666848285016144f7565b91505092915050565b60008060006060848603121561468457600080fd5b60006146928682870161450c565b93505060206146a38682870161450c565b92505060406146b48682870161450c565b9150509250925092565b6000602082840312156146d057600080fd5b60006146de84828501614521565b91505092915050565b60006146f38383614713565b60208301905092915050565b600061470b8383614c48565b905092915050565b61471c816154da565b82525050565b61472b816154da565b82525050565b61474261473d826154da565b615650565b82525050565b6000614753826152af565b61475d81856152f5565b93506147688361528f565b8060005b8381101561479957815161478088826146e7565b975061478b836152db565b92505060018101905061476c565b5085935050505092915050565b60006147b1826152ba565b6147bb8185615306565b9350836020820285016147cd8561529f565b8060005b8581101561480957848403895281516147ea85826146ff565b94506147f5836152e8565b925060208a019950506001810190506147d1565b50829750879550505050505092915050565b614824816154ec565b82525050565b6000614835826152c5565b61483f8185615317565b935061484f818560208601615590565b6148588161575f565b840191505092915050565b61486c8161556f565b82525050565b61487b8161556f565b82525050565b600061488c826152d0565b6148968185615328565b93506148a6818560208601615590565b6148af8161575f565b840191505092915050565b60006148c7601283615339565b91506148d28261577d565b602082019050919050565b60006148ea601483615339565b91506148f5826157a6565b602082019050919050565b600061490d601483615339565b9150614918826157cf565b602082019050919050565b6000614930602183615339565b915061493b826157f8565b604082019050919050565b6000614953601a83615339565b915061495e82615847565b602082019050919050565b6000614976602083615339565b915061498182615870565b602082019050919050565b6000614999602083615339565b91506149a482615899565b602082019050919050565b60006149bc602283615339565b91506149c7826158c2565b604082019050919050565b60006149df601c83615339565b91506149ea82615911565b602082019050919050565b6000614a02601583615339565b9150614a0d8261593a565b602082019050919050565b6000614a25603283615339565b9150614a3082615963565b604082019050919050565b6000614a48601283615339565b9150614a53826159b2565b602082019050919050565b6000614a6b601583615339565b9150614a76826159db565b602082019050919050565b6000614a8e601a83615339565b9150614a9982615a04565b602082019050919050565b6000614ab1603183615339565b9150614abc82615a2d565b604082019050919050565b6000614ad4601183615339565b9150614adf82615a7c565b602082019050919050565b6000614af7601683615339565b9150614b0282615aa5565b602082019050919050565b6000614b1a602483615339565b9150614b2582615ace565b604082019050919050565b6000614b3d602983615339565b9150614b4882615b1d565b604082019050919050565b6000614b60602583615339565b9150614b6b82615b6c565b604082019050919050565b6000614b83603383615339565b9150614b8e82615bbb565b604082019050919050565b6000614ba6602483615339565b9150614bb182615c0a565b604082019050919050565b6000614bc9602883615339565b9150614bd482615c59565b604082019050919050565b6000614bec602e83615339565b9150614bf782615ca8565b604082019050919050565b6000614c0f602983615339565b9150614c1a82615cf7565b604082019050919050565b6000614c32601583615339565b9150614c3d82615d46565b602082019050919050565b6000606083016000830151614c606000860182614713565b5060208301518482036020860152614c788282614881565b9150506040830151614c8d604086018261481b565b508091505092915050565b600060e083016000830151614cb06000860182614863565b506020830151614cc36020860182614d43565b506040830151614cd66040860182614d43565b506060830151614ce96060860182614d43565b506080830151614cfc6080860182614d43565b5060a083015184820360a0860152614d1482826147a6565b91505060c0830151614d2960c0860182614d61565b508091505092915050565b614d3d8161550b565b82525050565b614d4c81615548565b82525050565b614d5b81615548565b82525050565b614d6a81615552565b82525050565b614d7981615552565b82525050565b6000614d8b8284614731565b60148201915081905092915050565b6000602082019050614daf6000830184614722565b92915050565b60006020820190508181036000830152614dcf8184614748565b905092915050565b60006020820190508181036000830152614df1818461482a565b905092915050565b600060c082019050614e0e6000830189614872565b614e1b6020830188614d52565b614e286040830187614d52565b614e356060830186614d52565b614e426080830185614d52565b614e4f60a0830184614d70565b979650505050505050565b60006020820190508181036000830152614e73816148ba565b9050919050565b60006020820190508181036000830152614e93816148dd565b9050919050565b60006020820190508181036000830152614eb381614900565b9050919050565b60006020820190508181036000830152614ed381614923565b9050919050565b60006020820190508181036000830152614ef381614946565b9050919050565b60006020820190508181036000830152614f1381614969565b9050919050565b60006020820190508181036000830152614f338161498c565b9050919050565b60006020820190508181036000830152614f53816149af565b9050919050565b60006020820190508181036000830152614f73816149d2565b9050919050565b60006020820190508181036000830152614f93816149f5565b9050919050565b60006020820190508181036000830152614fb381614a18565b9050919050565b60006020820190508181036000830152614fd381614a3b565b9050919050565b60006020820190508181036000830152614ff381614a5e565b9050919050565b6000602082019050818103600083015261501381614a81565b9050919050565b6000602082019050818103600083015261503381614aa4565b9050919050565b6000602082019050818103600083015261505381614ac7565b9050919050565b6000602082019050818103600083015261507381614aea565b9050919050565b6000602082019050818103600083015261509381614b0d565b9050919050565b600060208201905081810360008301526150b381614b30565b9050919050565b600060208201905081810360008301526150d381614b53565b9050919050565b600060208201905081810360008301526150f381614b76565b9050919050565b6000602082019050818103600083015261511381614b99565b9050919050565b6000602082019050818103600083015261513381614bbc565b9050919050565b6000602082019050818103600083015261515381614bdf565b9050919050565b6000602082019050818103600083015261517381614c02565b9050919050565b6000602082019050818103600083015261519381614c25565b9050919050565b600060208201905081810360008301526151b48184614c98565b905092915050565b60006020820190506151d16000830184614d34565b92915050565b60006020820190506151ec6000830184614d52565b92915050565b60006020820190506152076000830184614d70565b92915050565b6000615217615228565b905061522382826155f5565b919050565b6000604051905090565b600067ffffffffffffffff82111561524d5761524c615730565b5b602082029050602081019050919050565b600067ffffffffffffffff82111561527957615278615730565b5b6152828261575f565b9050602081019050919050565b6000819050602082019050919050565b6000819050602082019050919050565b600081519050919050565b600081519050919050565b600081519050919050565b600081519050919050565b6000602082019050919050565b6000602082019050919050565b600082825260208201905092915050565b600082825260208201905092915050565b600082825260208201905092915050565b600082825260208201905092915050565b600082825260208201905092915050565b600061535582615548565b915061536083615548565b9250827fffffffffffffffffffffffffffffffffffffffffffffffffffffffffffffffff0382111561539557615394615674565b5b828201905092915050565b60006153ab82615548565b91506153b683615548565b9250826153c6576153c56156a3565b5b828204905092915050565b60006153dc82615539565b91506153e783615539565b92508162ffffff048311821515161561540357615402615674565b5b828202905092915050565b600061541982615548565b915061542483615548565b9250817fffffffffffffffffffffffffffffffffffffffffffffffffffffffffffffffff048311821515161561545d5761545c615674565b5b828202905092915050565b600061547382615552565b915061547e83615552565b92508163ffffffff048311821515161561549b5761549a615674565b5b828202905092915050565b60006154b182615548565b91506154bc83615548565b9250828210156154cf576154ce615674565b5b828203905092915050565b60006154e582615519565b9050919050565b60008115159050919050565b600081905061550682615d6f565b919050565b600061ffff82169050919050565b600073ffffffffffffffffffffffffffffffffffffffff82169050919050565b600062ffffff82169050919050565b6000819050919050565b600063ffffffff82169050919050565b600060ff82169050919050565b600061557a826154f8565b9050919050565b82818337600083830152505050565b60005b838110156155ae578082015181840152602081019050615593565b838111156155bd576000848401525b50505050565b600060028204905060018216806155db57607f821691505b602082108114156155ef576155ee615701565b5b50919050565b6155fe8261575f565b810181811067ffffffffffffffff8211171561561d5761561c615730565b5b80604052505050565b600061563182615562565b915060ff82141561564557615644615674565b5b600182019050919050565b600061565b82615662565b9050919050565b600061566d82615770565b9050919050565b7f4e487b7100000000000000000000000000000000000000000000000000000000600052601160045260246000fd5b7f4e487b7100000000000000000000000000000000000000000000000000000000600052601260045260246000fd5b7f4e487b7100000000000000000000000000000000000000000000000000000000600052602160045260246000fd5b7f4e487b7100000000000000000000000000000000000000000000000000000000600052602260045260246000fd5b7f4e487b7100000000000000000000000000000000000000000000000000000000600052604160045260246000fd5b6000601f19601f8301169050919050565b60008160601b9050919050565b7f496e76616c696420636f6d6d697373696f6e0000000000000000000000000000600082015250565b7f496e76616c696420677261636520706572696f64000000000000000000000000600082015250565b7f4e616d652063616e6e6f7420626520656d707479000000000000000000000000600082015250565b7f596f752063616e6e6f742061646420686569727320746f207468697320706c6160008201527f6e00000000000000000000000000000000000000000000000000000000000000602082015250565b7f596f75206861766520616c72656164792077697468647261776e000000000000600082015250565b7f416d6f756e74206d7573742062652067726561746572207468616e207a65726f600082015250565b7f546865726520617265206e6f7420666f756e647320746f207472616e73666572600082015250565b7f596f752063616e6e6f742077697468647261772066726f6d207468697320706c60008201527f616e000000000000000000000000000000000000000000000000000000000000602082015250565b7f596f752063616e6e6f74206372656174652061206e657720706c616e00000000600082015250565b7f596f7520617265206e6f7420746865206f776e65720000000000000000000000600082015250565b7f4d696d696e756d206461797320746f207769746864726177206d75737420626560008201527f2067726561746572207468616e207a65726f0000000000000000000000000000602082015250565b7f596f7520617265206e6f74206120686569720000000000000000000000000000600082015250565b7f596f757220706c616e2068617320657870697265640000000000000000000000600082015250565b7f596f7520617265206e6f742074686520706c616e206f776e6572000000000000600082015250565b7f596f752063616e6e6f7420637265617465206120626173696320706c616e207760008201527f6974682070726f6f66206f66206c696665000000000000000000000000000000602082015250565b7f496e76616c696420706c616e2074797065000000000000000000000000000000600082015250565b7f596f7520646f206e6f742068617665206120706c616e00000000000000000000600082015250565b7f596f752063616e6e6f742061646420746f20796f757273656c6620617320612060008201527f6865697200000000000000000000000000000000000000000000000000000000602082015250565b7f596f75206861766520746f207761697420756e74696c20796f7572207769746860008201527f6472617720646174650000000000000000000000000000000000000000000000602082015250565b7f596f757220706c616e20646f6573206e6f7420686176652070726f6f66206f6660008201527f206c696665000000000000000000000000000000000000000000000000000000602082015250565b7f596f752063616e6e6f742063726561746520616e20696e6865726974616e636560008201527f20706c616e20776974686f757420686569727300000000000000000000000000602082015250565b7f596f752063616e6e6f742072656d6f766520686569727320746f20746869732060008201527f706c616e00000000000000000000000000000000000000000000000000000000602082015250565b7f596f75206861766520746f207761697420756e74696c20796f7572206772616360008201527f6520706572696f64000000000000000000000000000000000000000000000000602082015250565b7f596f75206861766520746f207761697420756e74696c20796f75722070726f6f60008201527f66206f66206c6966652064617465000000000000000000000000000000000000602082015250565b7f596f752063616e6e6f7420637265617465206120626173696320706c616e207760008201527f6974682068656972730000000000000000000000000000000000000000000000602082015250565b7f496e76616c696420776974686472617720646174650000000000000000000000600082015250565b60038110615d8057615d7f6156d2565b5b50565b615d8c816154da565b8114615d9757600080fd5b50565b60038110615da757600080fd5b50565b615db38161550b565b8114615dbe57600080fd5b50565b615dca81615548565b8114615dd557600080fd5b50565b615de181615552565b8114615dec57600080fd5b5056fea264697066735822122076fde8748a87bd34a30d695c42c81d30a7ae543500763698b51c1bd44aaeecd664736f6c63430008040033",
  "linkReferences": {},
  "deployedLinkReferences": {}
}